:020000040801F1
:10000000D07800206901010871010108730101081D
:1000100000000000000000000000000000000000E0
:100020000000000000000000000000007501010851
:1000300000000000000000007701010879010108BC
:100040007B0101087B0101087B0101087B0101089C
:100050007B0101087B0101087B0101087B0101088C
:100060007B0101087B0101087B0101087B0101087C
:100070007B0101087B0101087B0101087B0101086C
:100080007B0101087B0101087B0101087B0101085C
:100090007B0101087B0101087B0101087B0101084C
:1000A0007B010108250801087308010813090108EC
:1000B0007B0101087B010108C10801087B010108DF
:1000C0007B0101087B0101087B0101087B0101081C
:1000D0007B0101087B010108000000007B01010891
:1000E0007B0101087B0101087B0101087B010108FC
:1000F000000000000000000000000000FD010108F9
:1001000000000000000000000000000000000000EF
:100110000000000000000000000000007B0101085A
:100120007B0101087B0101087B0101087B010108BB
:100130007B0101087B0101087B0101087B010108AB
:100140007B0101087B0101087B0101087B0101089B
:100150007B0101080348854600F038F80048004755
:10016000EB180108D0780020044880470448004775
:10017000FEE7FEE7FEE7FEE7FEE7FEE7D50601083D
:100180005501010803460B439B0703D009E008C94A
:10019000121F08C0042AFAD203E00B780370401C37
:1001A000491C521EF9D27047D2B201E00270401CC5
:1001B000491EFBD270470022F6E710B513460A46E7
:1001C00004461946FFF7F0FF204610BD1CB509484C
:1001D00000900948019005460126009C05E0E3686F
:1001E00007CC33430C3C98471034AC42F7D3FFF7AD
:1001F000B5FF0000AC200108BC20010880B541F625
:10020000E870C0F60100006801F09AF8B0B1FFE7AD
:1002100047F2B840C2F20000006838B1FFE747F289
:10022000B840C2F2000000688047FFE741F6E8707E
:10023000C0F60100006801F079F8FFE780BD80B5E5
:1002400000F090FB80BD80B586B0059004910392CC
:10025000FFE747F20000C2F2000001900198007829
:10026000532803D0FFE700F07DFBFFE7FFE7EFF344
:100270001080012181F31088009005980499039A59
:1002800000F007F80290009880F31088029806B0FA
:1002900080BD80B58AB009900891079208980490B3
:1002A00009981821414347F20000C2F200004018AB
:1002B0001830039003984069029040B1FFE702981C
:1002C000012819D0FFE7029802282CD032E00398C9
:1002D00000F09AFB059005980799884203D2FFE742
:1002E0000020069007E00798069003980499079A63
:1002F00000F016FEFFE720E0039800F085FB059074
:1003000005980799884203D2FFE70598019002E01B
:1003100007980190FFE70198069003980499069AC0
:1003200000F0FEFD09E003980499079A00F086FDAD
:10033000069002E000200690FFE706980AB080BD14
:1003400080B5A4B023902291219206A81B90402052
:100350001C9000201D9023991F911E90FFE722986A
:10036000017820A801702299491C2291007808B9CF
:10037000FFE79AE120A80078252800D08AE1002034
:10038000179001201A90FFE72298017820A80170A9
:100390000078233803900D2840D803998A0001A0E3
:1003A0008018874600F032B800F038B800F036B850
:1003B00000F034B800F032B800F030B800F02EB8D9
:1003C00000F02CB800F01AB800F028B800F006B819
:1003D00000F024B800F022B800F008B81798012106
:1003E000084317902298401C22901AE01798022187
:1003F000084317902298401C229012E0179804217D
:10040000084317902298401C22900AE01798082170
:10041000084317902298401C229002E000201A9076
:10042000FFE7FFE71A980028AED1FFE700201690FB
:10043000FFE72298017820A801700078302805DBBA
:10044000FFE720A800783A2801DBFFE70FE02298B9
:10045000401C229016980A21414320A80078401899
:1004600030381690FFE701200028E2D1FFE719A9F4
:100470000020087018902298017820A80170007858
:100480002E2839D1FFE72298401C2290229800782C
:100490002A280DD1FFE72298401C229019A901209B
:1004A0000870219A1068011D11600068189022E000
:1004B000FFE72298017820A801700078302805DB3A
:1004C000FFE720A800783A2801DBFFE712E019A92E
:1004D000012008702298401C229018980A2141435C
:1004E00020A80078401830381890FFE70120002835
:1004F000DFD1FFE7FFE7FFE72298007820A9087027
:10050000FFE720A800786C2805D0FFE720A8007836
:10051000682808D1FFE72298401C22902298007892
:1005200020A9087000E004E0FFE701200028E8D1DE
:10053000FFE720A800780290252800D1A0E00298CB
:10054000582848D0FFE70298632814D0FFE70298A4
:1005500064281ED0FFE70298702800D180E002983E
:10056000732849D0FFE70298752823D0FFE7029847
:10057000782830D089E0219A1068011D1160006848
:100580001A901A9905A8017001781BA800F01CFCAC
:100590007CE0219A1068011D116000681A901A9978
:1005A000189B1698179A019200901BA80A2200F037
:1005B0004AFA6BE0219A1068011D116000681A90D8
:1005C0001A99189B1698179A019200901BA80A2254
:1005D00000F01FFB5AE0219A1068011D11600068AD
:1005E0001A901A99189B1698179A019200901BA8B6
:1005F000102200F00EFB49E0219A1068011D1160E5
:1006000000680490049848B9FFE742F2A300C0F6DE
:100610000100049019A900200870FFE7FFE7049883
:10062000017820A801700499491C0491007808B948
:10063000FFE714E019A8007820B1FFE7189808B97F
:10064000FFE70CE020A801781BA800F0BDFB18987C
:10065000401E1890FFE71E980028E0D5FFE715E040
:10066000219A1068011D116000681A901A990020E3
:100670000190082300931BA8102200F0CAFA05E09D
:100680001BA8252100F0A0FB00E0FFE72298401CFA
:10069000229005E020A801781BA800F095FBFFE759
:1006A000FFE71E98002800D459E61E9801280EDBAB
:1006B000FFE71D9830B1FFE723981D9A06A9FFF7C1
:1006C000C2FDFFE71D991E9840181E90FFE71E9877
:1006D00024B080BD80B584B041F20001C4F20201B3
:1006E0000868012210430860FFE741F20000C4F2ED
:1006F000020000688007002801D4FFE7F5E741F217
:100700000400C4F2020000680C210840082847D108
:10071000FFE7FFE700200390FFE703984F2805D885
:10072000FFE7FFE70398401C0390F6E741F204015E
:10073000C4F20201086802900298F02290430290ED
:1007400002988022104302900298086000200390D3
:10075000FFE703984F2805D8FFE7FFE70398401C01
:100760000390F6E741F20401C4F202010868029026
:100770000298F02290430290029890221043029037
:100780000298086000200390FFE703984F2805D8DF
:10079000FFE7FFE70398401C0390F6E7FFE7FFE75A
:1007A00041F20401C4F2020101910868032290435E
:1007B00008600A2000F069FC019941F20002C4F2CD
:1007C000020210684FF6FF73CFF6F2631840106014
:1007D000086840F20C02C8F6FF0210400860086882
:1007E0004FF6FF72C7F200721040086041F22C0110
:1007F000C4F2020108680F229043086041F2300100
:10080000C4F202010020086041F20801C4F20201B2
:10081000086001F0ECF90121C806090401F0CEF8E6
:1008200004B080BD80B582B042F24C00C0F6010039
:100830000068012101F0C0FA01900198B8B1FFE70A
:1008400047F2C040C2F20000006838B1FFE747F24B
:10085000C040C2F2000000688047FFE742F24C004F
:10086000C0F601000068012101F09DFAFFE702B027
:1008700080BD80B582B042F24C00C0F601004068F5
:10088000012101F099FA01900198B8B1FFE747F210
:10089000C040C2F20000406838B1FFE747F2C040F4
:1008A000C2F2000040688047FFE742F24C00C0F609
:1008B00001004068012101F076FAFFE702B080BD37
:1008C00080B582B045F20000C4F2000040F205019C
:1008D000C0F2057101F0C1FAC8B1FFE745F20000AE
:1008E000C4F2000001F0B0FA01A9087047F2C84054
:1008F000C2F20000406848B1FFE747F2C840C2F2C8
:100900000000416801A800788847FFE7FFE702B0D0
:1009100080BD80B582B043F60000C4F2010040F211
:100920000501C0F2057101F098FAC8B1FFE743F67E
:100930000000C4F2010001F087FA01A9087047F233
:10094000C840C2F20000006848B1FFE747F2C84063
:10095000C2F20000016801A800788847FFE7FFE7BE
:1009600002B080BD80B582B047F20000C2F2000044
:1009700001900198A821FFF71EFC0199032008614E
:1009800001994861019842F29A01C0F60101816122
:10099000019A47F2B800C2F20000D061019A40F219
:1009A00000401062019A00209062019A5062019A00
:1009B000D062019A1166019A47F2A801C2F20001C1
:1009C0005166019A10219166019908670199C866DC
:1009D00001994867BFF35F8F0090FFE700980F28E9
:1009E0000ED8FFE7009A42F25600C0F60100801AC6
:1009F000C07B01998854FFE70098401C0090EDE708
:100A0000BFF35F8F02B080BD84B00390039800698C
:100A100002900398C068019002980199884209D811
:100A2000FFE7039881680198C04340180299401875
:100A3000009005E002990198C04340180090FFE73C
:100A4000009804B07047B0B590B0159C149C0F90FE
:100A50000E910D920C930E98002804D5FFE70E9886
:100A60004042099002E00E980990FFE709980A9029
:100A700001200B90FFE70A980D99884209DBFFE7F8
:100A80000A980D9990FBF1F00A900B98401C0B907E
:100A9000F1E70C980B99884203D9FFE70C980B906B
:100AA000FFE7149870B1FFE70E98002806D4FFE71F
:100AB00015A800784007002804D5FFE71498401EC9
:100AC0001490FFE715A800788007002803D5FFE7FA
:100AD0000C9878B3FFE715A80078C00750BBFFE774
:100AE000149830B3FFE7FFE714990020089069B12C
:100AF000FFE70B99149A0120002306939142079077
:100B000001D30698079007980890FFE70898C00758
:100B100070B1FFE71498401E14900F98202100F048
:100B200053F90F98C068002801D5FFE700E0DBE724
:100B3000FFE7FFE70F98C068002868D4FFE70E982A
:100B4000002808D5FFE70E9840420E900F982D21FF
:100B500000F03AF90CE015A800784007002805D508
:100B6000FFE70F982B2100F02FF900E0FFE7FFE7E8
:100B70000F98C068002849D4FFE715A800788007BF
:100B8000002832D5FFE715A80078C00768BBFFE74B
:100B90000C9850BBFFE7149830B3FFE7FFE71499B8
:100BA0000020059069B1FFE70B99149A01200023FA
:100BB00003939142049001D3039804900498059004
:100BC000FFE70598C00770B1FFE71498401E149026
:100BD0000F98302100F0F8F80F98C068002801D570
:100BE000FFE700E0DBE7FFE7FFE70F98C0680028BA
:100BF0000BD4FFE70F980E990D9A0C9B149C159D32
:100C00000195009400F005F8FFE7FFE7FFE710B05B
:100C1000B0BD10B590B0139C129C0F900E910D9228
:100C20000C930E98099001200A900890FFE709980C
:100C30000D99884209D3FFE709980D99B0FBF1F0AF
:100C400009900898401C0890F1E70C980899884290
:100C500003D9FFE70C980890FFE713A80078C007B6
:100C6000E0BBFFE71298C0B3FFE713A80078800746
:100C7000002807D5FFE70C9820B9FFE707A9302027
:100C8000087003E007A920200870FFE7FFE712992A
:100C90000020069069B1FFE70899129A012000230D
:100CA00004939142059001D304980590059806900D
:100CB000FFE70698C00778B1FFE71298401E129030
:100CC0000F9807A9097800F07FF80F98C0680028EE
:100CD00001D5FFE700E0DAE7FFE7FFE70F98C0681C
:100CE00000286FD4FFE7FFE70C98022804D3FFE742
:100CF0000C98401E0C900BE00E980A99B0FBF1F096
:100D00000B900B980D99884201D2FFE705E0FFE7B1
:100D10000D980A9948430A90E6E7FFE70E980A996A
:100D2000B0FBF1F00B900B980A9941430E98401AD2
:100D30000E900F980B9A42F26701C0F60101895C90
:100D400000F042F80F98C068002801D5FFE709E0DD
:100D50000D990A98B0FBF1F00A90FFE70A98002875
:100D6000DCD1FFE713A80078C00750B3FFE7129863
:100D700030B3FFE7FFE712990020039069B1FFE766
:100D80000899129A0120002301939142029001D305
:100D90000198029002980390FFE70398C00770B192
:100DA000FFE71298401E12900F98202100F00CF8D7
:100DB0000F98C068002801D5FFE700E0DBE7FFE7F8
:100DC000FFE7FFE710B010BD80B584B0039002A824
:100DD00001700398806801900198401C039949684C
:100DE00088420ED8FFE7029803990968019A88544F
:100DF0000198401C039988600399C868401CC8602A
:100E0000FFE7039988684968884215D1FFE7039A8C
:100E1000106911689268FFF716FA03998968884289
:100E200005D0FFE703990020C043C86003E00399A1
:100E300000208860FFE7FFE704B080BD80B58AB07E
:100E4000099008910792002005900998C0680390C6
:100E5000FFE709980069049004980399884206D92D
:100E6000FFE704990398C0434018069008E00998EA
:100E700081680398049A801AC04340180690FFE7DF
:100E8000069809998968039A891A884203D2FFE76C
:100E90000698019005E0099880680399401A01902E
:100EA000FFE70198069006980799884203D2FFE76A
:100EB0000698009002E007980090FFE700980690DF
:100EC0000998406803994018029002980899069A78
:100ED000FFF758F906990598401805900699089863
:100EE0004018089006990798401A079006990398A9
:100EF00040180390039809998968884203D1FFE755
:100F000000200390FFE7BFF35F8F03980999C86043
:100F1000FFE7079800289CD1FFE705980AB080BD3D
:100F200080B588B00790069105920798C068039035
:100F3000079880680399401A0290029805998842A0
:100F400012D9FFE70798406803994018019001986B
:100F50000699059AFFF716F9BFF35F8F0398059975
:100F600040180799C8601FE00298049007984068ED
:100F700003994018019001980699049AFFF702F925
:100F800005980299401A04900798406801900198CA
:100F90000699029A8918049AFFF7F4F8BFF35F8F55
:100FA00004980799C860FFE708B080BD81B001468A
:100FB0006846017000214056002810D4FFE7002148
:100FC000684641561F200A460240012090404909C8
:100FD00089004EF20012CEF200028850FFE701B005
:100FE000704770B582B0024601A8027000910021DE
:100FF0004056002819D4FFE7002401A9085703220E
:10100000D34318404EF20042CEF2000280580957F6
:101010008C07E50EFF24AC40A043009CA401E4B281
:10102000AC402043194088501DE001A908780F24E6
:10103000204008380322D34318404EF61C52CEF20B
:1010400000028058002549578D07EE0EFF25B54058
:10105000A843009DAD01EDB2B540284321400839B9
:1010600019408850FFE702B070BDBFF34F8F4EF6B6
:101070000C51CEF2000140F20400C0F2FA500860B8
:10108000BFF34F8FFFE700BFFDE782B00190002064
:101090000090FFE70098019A0A215143884205D247
:1010A000FFE7FFE70098401C0090F3E702B07047AD
:1010B00080B582B000F01EF9002000F027F8012072
:1010C000009000F023F8022000F020F8032000F048
:1010D0001DF8042000F01AF8052000F017F806208B
:1010E000019000F013F8009A0A21104600F087F8EA
:1010F000009841F6A101C0F6010100F07AFE0198C6
:1011000000F068F800F033F902B080BD80B586B019
:10111000014605A8029001700078410041F6EC708C
:10112000C0F60100405A00F07BFC02980078820073
:1011300042F20000C0F601000390805842F2240100
:10114000C0F6010104918B5801210022019200F0A8
:101150001BFB0199029B0398049A1B789B00C058C3
:10116000D358032200F057FB029A0398049912788F
:1011700092008058895800F0EFFA06B080BD80B523
:1011800082B001AA107068460170007880B1FFE754
:1011900001A80078820042F20000C0F601008058E9
:1011A00042F22401C0F60101895800F0DDFA0FE097
:1011B00001A80078820042F20000C0F601008058C9
:1011C00042F22401C0F60101895800F0C5FAFFE798
:1011D00002B080BD80B582B0014601A801700078E0
:1011E000820042F20000C0F60100805842F2240161
:1011F000C0F60101895800F0BFFA02B080BDB0B559
:101200008AB0034609A802900370089107A90A70E2
:10121000027842F25400C0F601008056097800F0CE
:10122000B7FB02980078410042F24800C0F6010086
:10123000405A00F0F5FB02980078810042F24C0021
:10124000C0F601000390405800F0DEFC04A80090B6
:1012500000F0E9FD0099029A039841F6FF030B8024
:1012600000234B808B80089D0A246C43641E0694E7
:10127000CB8012789200805800F03AFD02990398D2
:1012800009788900405800F0B6FC02990398097863
:10129000890040580121019100F085FD0199029AD1
:1012A000039812789200805800F073FD0299039819
:1012B00009788900405800F012FD0AB0B0BD82B034
:1012C00040F20000C0F6020000900098006847F26B
:1012D0008871C8F67701884204D1FFE701A901208F
:1012E000087003E001A900200870FFE701A800785A
:1012F00002B0704780B500F089FB80BD80B540F238
:101300000000C0F6020000F036F880BD81B0012078
:101310000090009880F3108801B0704781B00020E1
:101320000090009880F3108801B0704781B0009061
:10133000009840F21441C4F20101086001B0704706
:1013400082B0009040F21440C4F20100006800999D
:10135000084204D0FFE701A90120087003E001A9B9
:1013600000200870FFE701A8007802B0704780B540
:1013700000F0EAF980BD80B584B0039003A8C0787E
:101380000007002806D4FFE703980121C90640188A
:101390000390FFE703990020C90E029081B1FFE797
:1013A000039940F20002C0F60402012000230093DA
:1013B0009142019001D30098019001980290FFE7BB
:1013C0000298C00708B9FFE712E003984FF2000146
:1013D000CFF6FF710840039000F039F900F072F881
:1013E000039800F08AF800F06DF800F07DF8FFE750
:1013F00004B080BD87B0059005A8C078000700281C
:1014000006D4FFE705980121C90640180590FFE7BB
:1014100005990020C90E029081B1FFE7059940F2BD
:101420000002C0F6040201200023009391420190C3
:1014300001D30098019001980290FFE70298C0073D
:1014400020B9FFE706A90120087025E005984FF2B2
:101450000001CFF6FF710840059005980390002029
:101460000490FFE70498800A90B9FFE703980068AA
:10147000401C20B1FFE706A9012008700CE003988A
:10148000001D0390FFE7FFE70498401C0490E9E784
:1014900006A900200870FFE706A8007807B070478B
:1014A00081B001466846018001881F200A4602403B
:1014B00001209040890942F20002C4F202028850E1
:1014C00001B0704780B540F20530FFF7E9FF40F208
:1014D0000430FFF7E5FF40F20330FFF7E1FF40F291
:1014E0000230FFF7DDFF80BD42F21001C4F20201BD
:1014F0000868802210430860704780B584B003906C
:101500000120000500F02AF8014602A801700078C9
:1015100000BBFFE742F21001C4F20201019108682A
:101520000222009210430860039842F21402C4F2AF
:101530000202106008684022104308600120000584
:1015400000F00CF8009A019902AB187008689043FB
:101550000860FFE702A8007804B080BD80B584B0C1
:10156000039002A901200870FFE700F024F802A907
:1015700008700398401E0390FFE702A8017800203E
:101580000129019005D1FFE70398411E8841019090
:10159000FFE70198C0070028E7D1FFE702A800781D
:1015A000012804D1FFE702A905200870FFE702A87F
:1015B000007804B080BD81B069460020087042F216
:1015C0000C00C4F202000068C00720B1FFE76946C2
:1015D0000120087037E042F20C00C4F202000068FB
:1015E000C006002804D5FFE769460420087029E0FA
:1015F00042F20C00C4F2020000684007002804D543
:10160000FFE76946022008701BE042F20C00C4F2BA
:10161000020000680007002804D5FFE769460320A0
:1016200008700DE042F20C00C4F2020000680004F1
:10163000002804D5FFE7694607200870FFE7FFE7A9
:10164000FFE7FFE7FFE76846007801B0704742F226
:101650001000C4F202000068000600280FD5FFE762
:1016600042F20401C4F2020140F22310C4F26750B6
:10167000086048F6AB10CCF6EF500860FFE7704703
:1016800080B586B00590049101200005FFF766FF44
:10169000014603A801700078C0B9FFE742F21002CA
:1016A000C4F202020292116801200190014311600C
:1016B0000499059A11600005FFF750FF019A0299FD
:1016C00003AB1870086890430860FFE703A8007830
:1016D00006B080BD80B586B00590049105A8C0789D
:1016E0000007002806D4FFE705980121C906401825
:1016F0000590FFE705990020C90E039081B1FFE72F
:10170000059940F20002C0F6040201200023019373
:101710009142029001D30198029002980390FFE752
:101720000398C00708B9FFE70CE0FFF790FFFFF749
:10173000C9FE05980499FFF7A3FFFFF7C3FEFFF763
:10174000D3FEFFE706B080BD43F20001C4F2000102
:101750004AF6AA200860704782B001900091009874
:101760000199886202B0704782B0019000910098A0
:101770000199886102B0704782B001900091009891
:101780000199C86202B0704787B006900591049233
:1017900003930698006801900698C068009002A91B
:1017A00000200880FFE702A800880F282BD8FFE759
:1017B00002A801880398C840C007F0B1FFE702A85B
:1017C00001884900032213468B40019999430191F6
:1017D000059B018849008B400199194301910188BB
:1017E00049008A4000999143009104990088400083
:1017F0008140009808430090FFE7FFE70298401CF3
:1018000002A90880CFE70198069908600098069918
:10181000C86007B0704710B586B0059004A8017085
:10182000039202930078012806D1FFE7029A0599F6
:1018300048681043486005E0029A0599486890435B
:101840004860FFE705988068009001A900200880A3
:10185000FFE701A800880F281DD8FFE701A801882D
:101860000298C840C00780B1FFE701A8018849007D
:1018700003228A4000999143009103990088400017
:101880008140009808430090FFE7FFE70198401C63
:1018900001A90880DDE700980599886006B010BDB1
:1018A00047F2BC41C2F200010868401C0860704762
:1018B00080B582B044F20000C0F6010000900098AC
:1018C000006801900620FFF785FCFFF750FD0099A6
:1018D000019A0120C00600F0F1FA012803D1FFE7C8
:1018E00000F04EF8FFE702B080BD80B584B0002064
:1018F000039002A90120087042F27700C0F60100AF
:1019000000F0CAF842F28600C0F6010000F06AF862
:10191000FFF7CEFBFFF702FDFFF7D1FC012803D153
:10192000FFE7FFF7C5FFFFE70620FFF753FCFFF7D0
:101930001EFD0020019001210091FFF720FC00987E
:101940000199FFF71CFC00990220FFF718FC019990
:101950000320FFF714FC00990420FFF710FC019905
:101960000520FFF70CFCFFF7C9FC00F009F8FFE7C2
:101970000620FFF72FFCFFF7FAFC00F001F8F7E76D
:1019800082B001200190019880F31088FFF76DFB71
:1019900080B584B00A46014603A80190017002A9EF
:1019A0000A700022009280560978FFF71AFB00990E
:1019B00001984056FFF7FAFA04B080BD82B001905A
:1019C0000091019800994FF68072C1F6FF721140A4
:1019D00008434EF60851CEF200010860BFF34F8F66
:1019E00002B0704783B080B583B00793069205912B
:1019F000029005A801900299002001AAFEF7A0FC20
:101A000003B080BC01BC03B08646704741F224019C
:101A1000C4F20201086801221206104308607047F0
:101A200081B001466846018000881F2201461140AE
:101A300001238B40810941F20002C4F2020288585E
:101A40001843885001B0704781B001466846018054
:101A500000881F220146114001238B40810941F279
:101A60000002C4F2020288589843885001B07047BF
:101A700081B001466846018000881F22014611405E
:101A800001238B40810941F20002C4F2020288580E
:101A90001843885001B0704780B582B00190FEF7BE
:101AA000CEFB0198FFF79EFF02B080BD10B586B057
:101AB00000200590049041F20002C4F20202116875
:101AC00001231B04194311600290FFE70298400BA9
:101AD00028B9FFE7FFE70298401C0290F6E7FFE70E
:101AE0000598401C059041F20000C4F20200006815
:101AF0000121490408400490FFE704990020019067
:101B000041B9FFE705984FF6FF71401A411E884121
:101B10000190FFE70198C0070028E1D1FFE741F2FB
:101B20000000C4F2020000688003002802D4FFE72E
:101B3000FFE7FEE742F20001C4F202010868012259
:101B4000104306239843086041F20401C4F20201E5
:101B500000910868086008680860086840F200435F
:101B60001843086041F22C03C4F2020318680F24E2
:101B7000A043186008684FF6FF73C7F6007318405B
:101B80000860086819231B041843086041F200012B
:101B9000C4F202010868120610430860FFE741F230
:101BA0000000C4F2020000688001002801D4FFE7B1
:101BB000F5E741F20401C4F20201086803900398BA
:101BC000032290430390039802221043039003984A
:101BD0000860FFE741F20400C4F2020000680C2133
:101BE0000840082801D0FFE7F4E706B010BD80B533
:101BF000FFF75CFF80BD81B00090009908688022EB
:101C00001043086001B0704780B588B0079007980E
:101C1000069001218907884228D0FFE7069840F204
:101C20000041C4F20001884229D0FFE7069841F242
:101C30000001C4F2000188422AD0FFE7069841F271
:101C40000041C4F2000188422BD0FFE7069841F61C
:101C50000001C4F20001884235D0FFE7069844F63F
:101C60000041C4F20101884224D035E040F2004036
:101C70000590FFF7FDFE0598FFF7E6FE2DE040F228
:101C800001400490FFF7F4FE0498FFF7DDFE24E026
:101C900040F204400390FFF7EBFE0398FFF7D4FEF9
:101CA0001BE040F205400290FFF7E2FE0298FFF7CA
:101CB000CBFE12E040F20B300190FFF7D9FE019805
:101CC000FFF7C2FE09E040F208400090FFF7D0FEA7
:101CD0000098FFF7B9FE00E0FFE708B080BD81B0D3
:101CE00000900099086801221043086001B0704715
:101CF00082B0019000910098008801998862019853
:101D000001218907884208D0FFE7019840F200418D
:101D1000C4F20001884212D1FFE7019908687022DD
:101D20009043086000984288019908681043086051
:101D3000009882880199086810430860FFE70098BE
:101D400080680199C862019841F20001C4F2000163
:101D5000884208D1FFE7019841F20041C4F2000136
:101D600088420FD0FFE7019908684FF6FF42CFF68F
:101D7000FF72104008600098C288019908681043FB
:101D80000860FFE70199486901221043486102B0E9
:101D9000704782B001900091009A0199C868104381
:101DA000C86002B0704782B0019000910098C043B3
:101DB0000199086102B0704784B0029001910298C5
:101DC000C068019908400090029800690199084292
:101DD00007D0FFE7009820B1FFE703A901200870B2
:101DE00003E003A900200870FFE703A8007804B00F
:101DF000704782B0024601A802700091007881000D
:101E000047F2C040C2F20000405850B9FFE70098C6
:101E100001A909788A0047F2C041C2F20001885046
:101E2000FFE702B0704781B0009000990020088061
:101E30000099488000998880009A4FF6FF71916060
:101E40000099C88001B0704781B000900098406A46
:101E500040F2FF11084001B0704710B585B0039003
:101E60000291002001900090039802A90988890935
:101E70004058029C1F231C4001210A46A2401040EA
:101E800001900398029A920D8058029A1B041A40FE
:101E9000120C914008400090009838B1FFE701987B
:101EA00020B1FFE704A90120087003E004A9002085
:101EB0000870FFE704A8007805B010BD80B58AB0AF
:101EC00008900791069200200490089903910290CF
:101ED000019008994FF20002CFF6FF7208461040B9
:101EE000401A41F200014018019001980699884279
:101EF00003D9FFE70120029009E006980199401AF2
:101F000040F6FF714018000B401C0290FFE7FFF7FE
:101F1000FDF900200590FFE70598029988421ED23E
:101F2000FFE70898059909034018FFF724FA089875
:101F3000059909034018FFF75DFA30B1FFE7FFF795
:101F4000EDF909A9012008703BE00620FFF742F9EE
:101F5000FFF70DFAFFE70598401C0590DCE700202D
:101F60000590FFE705980699884224D2FFE7079875
:101F70000599405804900898059940180499FFF76E
:101F8000A9FB0898059940180390039800680499E4
:101F9000884206D0FFE7FFF7C1F909A901200870C0
:101FA0000FE00620FFF716F9FFF7E1F9FFE70598C4
:101FB000001D0590D6E7FFF7B1F909A900200870C8
:101FC000FFE709A800780AB080BD02E008C8121F28
:101FD00008C1002AFAD170477047002001E001C112
:101FE000121F002AFBD170470004000011051105E3
:101FF000130513051305130512051205110500003D
:1020000000000048000000480008004800080048A0
:102010000008004800080048000400480004004888
:102020000000004800010000000200000001000064
:1020300000020000400000008000000000100000CE
:10204000000800000200000004070507001000401F
:1020500000140040191A00000000000054545220DF
:1020600052454747455300303132333435363738DF
:10207000394142434445460A44656D6F207374619B
:10208000727420210A005468697320697320626F9A
:102090006F746C6F616465720A005465726D696E6D
:1020A000616C00284E554C4C29000000BC200108F2
:0C20B00000700020D0080000DA1F0108BA
:040000050801015598
:00000001FF
