:020000040800F2
:20000000E81800206901000871010008730100080000000000000000000000000000000058
:20002000000000000000000000000000750100080000000000000000770100087901000840
:200040007B0100087B0100087B0100087B0100087B0100087B0100087B0100087B01000880
:200060007B0100087B0100087B0100087B0100087B0100087B0100087B0100087B01000860
:200080007B0100087B0100087B0100087B0100087B0100087B0100087B0100087B01000840
:2000A0007B010008B10A0008FF0A0008B30B00087B0100087B0100084D0B00087B01000836
:2000C0007B0100087B0100087B0100087B0100087B0100087B010008000000007B01000884
:2000E0007B0100087B0100087B0100087B010008000000000000000000000000A102000845
:20010000000000000000000000000000000000000000000000000000000000007B0100085B
:200120007B0100087B0100087B0100087B0100087B0100087B0100087B0100087B0100089F
:200140007B0100087B0100087B0100087B0100087B0100080348854600F08AF800480047F4
:20016000B5440008E81800200448804704480047FEE7FEE7FEE7FEE7FEE7FEE75F090008EA
:2001800055010008F0B51FB40646002082B005464024019100901BE0019922460F46304652
:2001A00000F054F8049A059B801A994110D310461946224600F03AF8361A8F41019722460F
:2001C00001200021009F00F031F838184D4100902046641E0028DFDC019B009829463246D1
:2001E00007B0F0BD03460B439B0703D009E008C9121F08C0042AFAD203E00B780370401CAD
:20020000491C521EF9D27047D2B201E00270401C491EFBD270470022F6E710B513460A46FC
:2002200004461946FFF7F0FF204610BD10B5202A04DB0146203A9140002010BD914020239C
:200240009C1A0346E3401943904010BD10B5202A04DB0846203AD040002110BD0B46D3408B
:20026000D0402024A21A91400843194610BD00001CB5094800900948019005460126009C84
:2002800005E0E36807CC33430C3C98471034AC42F7D3FFF763FF000088710008A871000848
:2002A00080B546F6C470C0F60000006801F053FFB0B1FFE740F2F440C2F20000006838B186
:2002C000FFE740F2F440C2F2000000688047FFE746F6C470C0F60000006801F032FFFFE773
:2002E00080BD80B584B000200390FFE7039880087C2813D8FFE70720019001F0A2FC7D2043
:20030000029001F042FE019801F09BFC029801F03CFEFFE70398401C0390E7E704B080BD05
:2003200080B500F079FC80BD80B586B0059004910392FFE740F22C00C2F20000019001989A
:200340000078532803D0FFE700F066FCFFE7FFE7EFF31080012181F3108800900598049969
:20036000039A00F007F80290009880F31088029806B080BD80B58AB0099008910792089855
:20038000049009981821414340F22C00C2F2000040181830039003984069029040B1FFE779
:2003A0000298012819D0FFE7029802282CD032E0039800F083FC059005980799884203D25E
:2003C000FFE70020069007E00798069003980499079A00F0FFFEFFE720E0039800F06EFCC4
:2003E000059005980799884203D2FFE70598019002E007980190FFE7019806900398049919
:20040000069A00F0E7FE09E003980499079A00F06FFE069002E000200690FFE706980AB0DC
:2004200080BD000080B5A4B023902291219206A81B9040201C9000201D9023991F911E9091
:20044000FFE72298017820A801702299491C2291007808B9FFE79AE120A80078252800D080
:200460008AE10020179001201A90FFE72298017820A801700078233803900D2840D80399DE
:200480008A0001A08018874600F032B800F038B800F036B800F034B800F032B800F030B8A6
:2004A00000F02EB800F02CB800F01AB800F028B800F006B800F024B800F022B800F008B80C
:2004C00017980121084317902298401C22901AE017980221084317902298401C229012E019
:2004E00017980421084317902298401C22900AE017980821084317902298401C229002E010
:2005000000201A90FFE7FFE71A980028AED1FFE700201690FFE72298017820A80170007876
:20052000302805DBFFE720A800783A2801DBFFE70FE02298401C229016980A21414320A85D
:200540000078401830381690FFE701200028E2D1FFE719A90020087018902298017820A8F8
:20056000017000782E2839D1FFE72298401C2290229800782A280DD1FFE72298401C229074
:2005800019A901200870219A1068011D11600068189022E0FFE72298017820A80170007862
:2005A000302805DBFFE720A800783A2801DBFFE712E019A9012008702298401C22901898F4
:2005C0000A21414320A80078401830381890FFE701200028DFD1FFE7FFE7FFE72298007801
:2005E00020A90870FFE720A800786C2805D0FFE720A80078682808D1FFE72298401C2290EE
:200600002298007820A9087000E004E0FFE701200028E8D1FFE720A800780290252800D1E5
:20062000A0E00298582848D0FFE70298632814D0FFE7029864281ED0FFE70298702800D136
:2006400080E00298732849D0FFE70298752823D0FFE70298782830D089E0219A1068011D02
:20066000116000681A901A9905A8017001781BA800F004FD7CE0219A1068011D1160006873
:200680001A901A99189B1698179A019200901BA80A2200F032FB6BE0219A1068011D1160AF
:2006A00000681A901A99189B1698179A019200901BA80A2200F007FC5AE0219A1068011DD3
:2006C000116000681A901A99189B1698179A019200901BA8102200F0F6FB49E0219A10687D
:2006E000011D116000680490049848B9FFE747F24910C0F60000049019A900200870FFE7D0
:20070000FFE70498017820A801700499491C0491007808B9FFE714E019A8007820B1FFE70B
:20072000189808B9FFE70CE020A801781BA800F0A5FC1898401E1890FFE71E980028E0D5B2
:20074000FFE715E0219A1068011D116000681A901A9900200190082300931BA8102200F0E3
:20076000B2FB05E01BA8252100F088FC00E0FFE72298401C229005E020A801781BA800F003
:200780007DFCFFE7FFE71E98002800D459E61E9801280EDBFFE71D9830B1FFE723981D9A87
:2007A00006A9FFF7C1FDFFE71D991E9840181E90FFE71E9824B080BD70B588B002AC009432
:2007C0000C46009905460D980C9E4D610C61CA6004A90B8003A9088001F0FCFB02A9002030
:2007E0000880FFE702A8008803A9098888423CDAFFE700990C9800780A69126810700A69C1
:200800001068401C106008690068C96804AA12888918884205D1FFE70099C8680969086078
:20082000FFE700990869006849690968884212D1FFE700994A691068401C1060C96804AA3B
:2008400012888918884205D1FFE70099C86849690860FFE7FFE7FFE700980068401C02A93B
:2008600008800C98401C0C90BCE701F0C7FB08B070BD84B002900191684602800198006890
:2008800002990968884208D9FFE70198006802990968401A03A9088014E001980068029990
:2008A000096888420AD2FFE7019800680099401802990968401A03A9088003E003A9002000
:2008C0000880FFE703A8008804B07047B0B588B005AC0194044601980C9D846041600260B6
:2008E00004A8038003A900200090087001F072FB009801990C9A10704868006889680968C5
:2009000088421AD0FFE701998868006800780C9A107003AA012010708A681068401C106029
:20092000096804AA12888918884205D1FFE70199086889680860FFE7FFE701F05FFB03A8B2
:20094000007808B0B0BD83B002900191009200980299086000980199086003B0704780B53D
:2009600084B041F20001C4F202010868012210430860FFE741F20000C4F202000068800748
:20098000002801D4FFE7F5E741F20400C4F2020000680C210840082847D1FFE7FFE7002098
:2009A0000390FFE703984F2805D8FFE7FFE70398401C0390F6E741F20401C4F2020108683B
:2009C00002900298F0229043029002988022104302900298086000200390FFE703984F28A6
:2009E00005D8FFE7FFE70398401C0390F6E741F20401C4F20201086802900298F022904375
:200A0000029002989022104302900298086000200390FFE703984F2805D8FFE7FFE7039822
:200A2000401C0390F6E7FFE7FFE741F20401C4F20201009108680322904308600A2000F0B2
:200A40007EFC009941F20002C4F2020210684FF6FF73CFF6F26318401060086840F20C02D3
:200A6000C8F6FF021040086008684FF6FF72C7F200721040086041F22C01C4F2020108686D
:200A80000F229043086041F23001C4F2020100200190086041F20801C4F20201086005F062
:200AA000AFFE01990120C00603F09AFE04B080BD80B582B047F22C00C0F600000068012180
:200AC00005F083FF01900198B8B1FFE741F2D420C2F20000006838B1FFE741F2D420C2F239
:200AE000000000688047FFE747F22C00C0F600000068012105F060FFFFE702B080BD80B5DE
:200B000082B047F22C00C0F600004068012105F05CFF01900198B8B1FFE741F2D420C2F21A
:200B20000000406838B1FFE741F2D420C2F2000040688047FFE747F22C00C0F6000040684B
:200B4000012105F039FFFFE702B080BD80B582B045F20000C4F2000040F20501C0F20571BD
:200B600006F020F918B3FFE745F20000C4F2000006F04CF801A9087041F2DC40C2F2000069
:200B8000406848B1FFE741F2DC40C2F20000416801A800788847FFE745F20000C4F200005F
:200BA00040F20501C0F2057106F0D9F8FFE702B080BD80B582B043F60000C4F2010040F2B0
:200BC0000501C0F2057106F0EDF818B3FFE743F60000C4F2010006F019F801A9087041F20F
:200BE000DC40C2F20000006848B1FFE741F2DC40C2F20000016801A800788847FFE743F663
:200C00000000C4F2010040F20501C0F2057106F0A6F8FFE702B080BD80B582B040F22C008F
:200C2000C2F2000001900198A821FFF7F4FA01990320086101994861019847F24011C0F6E7
:200C400000018161019A40F2E400C2F20000D061019A40F200401062019A00209062019A54
:200C60005062019AD062019A1166019A40F2D401C2F200015166019A102191660199086709
:200C80000199C86601994867BFF35F8F0090FFE700980F280ED8FFE7009A47F26C00C0F69D
:200CA0000000801AC07B01998854FFE70098401C0090EDE7BFF35F8F02B080BD84B0039055
:200CC0000398006902900398C068019002980199884209D8FFE7039881680198C0434018ED
:200CE00002994018009005E002990198C04340180090FFE7009804B07047B0B590B0159C2E
:200D0000149C0F900E910D920C930E98002804D5FFE70E984042099002E00E980990FFE752
:200D200009980A9001200B90FFE70A980D99884209DBFFE70A980D9990FBF1F00A900B9809
:200D4000401C0B90F1E70C980B99884203D9FFE70C980B90FFE7149870B1FFE70E9800284A
:200D600006D4FFE715A800784007002804D5FFE71498401E1490FFE715A8007880070028D8
:200D800003D5FFE70C9878B3FFE715A80078C00750BBFFE7149830B3FFE7FFE714990020CB
:200DA000089069B1FFE70B99149A0120002306939142079001D30698079007980890FFE7DC
:200DC0000898C00770B1FFE71498401E14900F98202100F053F90F98C068002801D5FFE720
:200DE00000E0DBE7FFE7FFE70F98C068002868D4FFE70E98002808D5FFE70E9840420E9015
:200E00000F982D2100F03AF90CE015A800784007002805D5FFE70F982B2100F02FF900E07F
:200E2000FFE7FFE70F98C068002849D4FFE715A800788007002832D5FFE715A80078C0071F
:200E400068BBFFE70C9850BBFFE7149830B3FFE7FFE714990020059069B1FFE70B99149AE5
:200E60000120002303939142049001D30398049004980590FFE70598C00770B1FFE7149800
:200E8000401E14900F98302100F0F8F80F98C068002801D5FFE700E0DBE7FFE7FFE70F98B0
:200EA000C06800280BD4FFE70F980E990D9A0C9B149C159D0195009400F005F8FFE7FFE73C
:200EC000FFE710B0B0BD10B590B0139C129C0F900E910D920C930E98099001200A9008908F
:200EE000FFE709980D99884209D3FFE709980D99B0FBF1F009900898401C0890F1E70C98BD
:200F00000899884203D9FFE70C980890FFE713A80078C007E0BBFFE71298C0B3FFE713A849
:200F200000788007002807D5FFE70C9820B9FFE707A93020087003E007A920200870FFE7BC
:200F4000FFE712990020069069B1FFE70899129A0120002304939142059001D304980590B5
:200F600005980690FFE70698C00778B1FFE71298401E12900F9807A9097800F07FF80F9854
:200F8000C068002801D5FFE700E0DAE7FFE7FFE70F98C06800286FD4FFE7FFE70C98022804
:200FA00004D3FFE70C98401E0C900BE00E980A99B0FBF1F00B900B980D99884201D2FFE7AF
:200FC00005E0FFE70D980A9948430A90E6E7FFE70E980A99B0FBF1F00B900B980A994143EC
:200FE0000E98401A0E900F980B9A47F27D01C0F60001895C00F042F80F98C068002801D5BD
:20100000FFE709E00D990A98B0FBF1F00A90FFE70A980028DCD1FFE713A80078C00750B353
:20102000FFE7129830B3FFE7FFE712990020039069B1FFE70899129A01200023019391421B
:20104000029001D30198029002980390FFE70398C00770B1FFE71298401E12900F982021F1
:2010600000F00CF80F98C068002801D5FFE700E0DBE7FFE7FFE7FFE710B010BD80B584B07F
:20108000039002A801700398806801900198401C0399496888420ED8FFE70298039909680F
:2010A000019A88540198401C039988600399C868401CC860FFE7039988684968884215D11D
:2010C000FFE7039A106911689268FFF72DF903998968884205D0FFE703990020C043C8608C
:2010E00003E0039900208860FFE7FFE704B080BD80B58AB00990089107920020059009981C
:20110000C0680390FFE709980069049004980399884206D9FFE704990398C04340180690A0
:2011200008E0099881680398049A801AC04340180690FFE7069809998968039A891A884258
:2011400003D2FFE70698019005E0099880680399401A0190FFE70198069006980799884293
:2011600003D2FFE70698009002E007980090FFE700980690099840680399401802900298F8
:201180000899069AFFF72EF80699059840180590069908984018089006990798401A07906B
:2011A0000699039840180390039809998968884203D1FFE700200390FFE7BFF35F8F039884
:2011C0000999C860FFE7079800289CD1FFE705980AB080BD80B588B00790069105920798E0
:2011E000C0680390079880680399401A029002980599884212D9FFE7079840680399401817
:20120000019001980699059AFEF7ECFFBFF35F8F0398059940180799C8601FE00298049060
:201220000798406803994018019001980699049AFEF7D8FF05980299401A049007984068D3
:20124000019001980699029A8918049AFEF7CAFFBFF35F8F04980799C860FFE708B080BD4D
:2012600081B001466846017000214056002810D4FFE70021684641561F200A4602400120D6
:201280009040490989004EF20012CEF200028850FFE701B0704770B582B0024601A80270AF
:2012A000009100214056002819D4FFE7002401A908570322D34318404EF20042CEF20002E7
:2012C000805809578C07E50EFF24AC40A043009CA401E4B2AC402043194088501DE001A960
:2012E00008780F24204008380322D34318404EF61C52CEF200028058002549578D07EE0E67
:20130000FF25B540A843009DAD01EDB2B54028432140083919408850FFE702B070BDBFF335
:201320004F8F4EF60C51CEF2000140F20400C0F2FA500860BFF34F8FFFE700BFFDE782B088
:20134000019000200090FFE70098019A0A215143884205D2FFE7FFE70098401C0090F3E7A9
:2013600002B0704780B501F06AFE03F07EF940F2F841C2F200010420087001F077F941F2BC
:20138000C421C2F20001088080BD40F2F841C2F2000108200870704780B586B005A900203E
:2013A000088041F2C420C2F20000008804A9088003A901200870FFE703A8007802281DD0B8
:2013C000FFE701F053F9014605A800900180018847F28110C0F6000004F0E6F900980088E9
:2013E00004A90291098803AA0192127801F082F9019A0299107005980880DDE7059841F277
:20140000C421C2F20001088006B080BD80B540F2F840C2F200000078042809D1FFE700F010
:2014200028F840F2F841C2F200010020087018E040F2F840C2F200000078082809D1FFE756
:20144000FFF7AAFF40F2F841C2F200010020087006E040F2F841C2F2000100200870FFE7B1
:20146000FFE780BD40F2F841C2F2000104200870704780B586B005A90020088041F2C420FE
:20148000C2F20000008804A9088003A903200870FFE703A8007804281DD0FFE701F0E6F8BD
:2014A000014605A800900180018847F26B10C0F6000004F079F90098008804A902910988DD
:2014C00003AA0192127801F015F9019A0299107005980880DDE7059841F2C421C2F200013A
:2014E000088006B080BD42F20841C4F201010868082210430860FFE742F20840C4F20100CE
:2015000000680007002801D5FFE7F5E742F20841C4F201010868042210430860FFE742F2FC
:201520000840C4F2010000684007002801D5FFE7F5E7704783B0024602A8027001910078E5
:201540000090012804D0FFE70098022821D041E00198E8B1FFE70198102819D8FFE742F250
:201560002C41C4F2010108684FF6FF72CFF60F72104008600198000540F20002CFF6F07229
:2015800082180F2000050240086810430860FFE721E00198E8B1FFE70198042819D8FFE775
:2015A00042F23841C4F2010108684FF6FF72CFF6CF72104008600198000540F20002CFF64B
:2015C000F0728218032000050240086810430860FFE700E0FFE703B0704781B0009000980B
:2015E00040F6FF71084042F2C041C4F20101086001B0704781B00090009850B1FFE742F2CC
:201600000841C4F20101086840F60002104308600BE042F20841C4F2010108684FF2FF7224
:20162000CFF6FF7210400860FFE701B0704780B540F24010FFF7D1FF42F20840C4F20100BE
:201640000068C00748B9FFE742F20841C4F201010868012210430860FFE780BD82B001AAF1
:20166000107068460170007800B3FFE701A80078C00750B1FFE742F20841C4F20101086846
:201680000122120510430860FFE701A80078800700280AD5FFE742F20841C4F20101086835
:2016A00048F2000210430860FFE723E001A80078C00760B1FFE742F20841C4F201010868C6
:2016C0004FF6FF72CFF6EF7210400860FFE701A80078800700280CD5FFE742F20841C4F2C6
:2016E0000101086847F6FF72CFF6FF7210400860FFE7FFE702B0704783B0024602A8027010
:20170000019100780090012804D0FFE70098022810D01FE042F20841C4F2010108684FF6C1
:20172000FF72CFF6F17210400860019A08681043086010E042F20841C4F20101086848F6BF
:20174000FF72CFF6FF7210400860019A08681043086000E0FFE703B0704781B00090009AD9
:2017600042F20041C4F2010108689043086001B0704782B0019069460020087042F20040AB
:20178000C4F2010000680199084204D0FFE7694601200870FFE76846007802B0704710B50A
:2017A00085B0034604A8037003AB19700292007805281BDCFFE742F23441C4F2010108686E
:2017C000019004AB1C780520024662431F249440019AA243019203AA12781B7858438240D2
:2017E000019810430190019808603FE004A800780B281DDCFFE742F23041C4F20101086849
:20180000019004AB1C780520024662431E3A1F249440019AA243019203AA12781B785843FB
:201820001E388240019810430190019808601CE042F22C41C4F201010868019004AB1C7879
:201840000520024662433C3A1F249440019AA243019203AA12781B7858433C3882400198A2
:201860001043019001980860FFE7FFE703A8007809281ADCFFE742F21041C4F201010868DA
:20188000009003AB1C7803200246624307249440009AA2430092029A1B7858438240009832
:2018A000104300900098086022E003A8007813281CDCFFE742F20C41C4F2010108680090CE
:2018C00003AB1C780320024662431E3A07249440009AA2430092029A1B7858431E3882406C
:2018E0000098104300900098086000E0FFE7FFE705B010BD42F24C40C4F20100006880B22E
:20190000704781B00146684601700078C00750B1FFE742F20841C4F20101086801229205F4
:2019200010430860FFE768460078800700280AD5FFE742F20841C4F201010868012252054D
:2019400010430860FFE701B0704780B588B000F0E8FA0020069000F011F90120059000F0E9
:201960000DF9022000F00AF9032000F007F90420029000F003F90520039000F0FFF80620D2
:20198000079000F0FBF8072000F0F8F80820009000F0F4F80098059900F028F9079800F05C
:2019A00050F905F0D5FA00F007FC0598069A4EF20011019100F0CBF9059844F2EB31C0F6AE
:2019C000000105F04AF80199069A104600F0BFF9069845F20771C0F6000105F03EF80798C9
:2019E00000F02FF905F0B4FA00F0E6FB0699084600F0FCF80599084600F0F8F80298059986
:201A000000F0F4F80398069900F0F0F8642000F09CFA079800F015F905F09AFA00F0CCFBF1
:201A20000699084600F029F8069841F6BB71C0F6000100F0A7FB059A0A210491104600F0B9
:201A400015F9059844F29B41C0F6000104F0DAFF0499059A069800F009F9069844F229413B
:201A6000C0F6000104F0CEFF079800F0EAF805F06FFA00F0A1FB08B080BD80B586B00246EB
:201A800005A80290027004AA009211700078410046F6C070C0F60000405A04F06FFB40F2CF
:201AA000006004F06BFB02980078820046F6BC70C0F60000805846F6C871C0F600018B58D3
:201AC00000220192114601F015FA00990298027846F6C270C0F600008056097802F06AFE78
:201AE0000298027846F6CD70C0F60000805C46F6CC71C0F60001895C04F084FD019A029808
:201B00000078810046F6C470C0F6000003904058114600F08BFA02990398097889004058D7
:201B200000F00FFB06B080BD80B582B0014601A801700078820046F6E070C0F600008058DC
:201B400047F20401C0F60001895801F0BEF902B080BD80B582B0014601A801700078820056
:201B600047F24800C0F60000805847F25C01C0F60001895801F0A9F902B080BD80B584B03D
:201B8000014603A8009001700078410046F6CE70C0F60000405A04F0F1FA0098007882005E
:201BA00046F6E070C0F600000190805847F20401C0F6000102918B580121022201F09AF945
:201BC000009A019802991278920080588B580021032201F0D6F9009A019802991278920070
:201BE0008058895801F059F904B080BD80B582B001AA107068460170007880B1FFE701A80F
:201C00000078820046F6E070C0F60000805847F20401C0F60001895801F047F90FE001A811
:201C20000078820046F6E070C0F60000805847F20401C0F60001895801F02FF9FFE702B009
:201C400080BD80B582B0014601A801700078820046F6E070C0F60000805847F20401C0F677
:201C60000001895801F029F902B080BDB0B58EB00DAB049318700C910BA800900270002094
:201C8000019003F029FE0099019B0246049807930692027847F23400C0F60000805609785A
:201CA00002F088FD04980078410047F22800C0F60000405A04F062FA04980078810047F289
:201CC0002C00C0F600000590405804F0A6FD08A8029004F0B1FE019B0698079942F21072E9
:201CE000FEF750FA019B0299049A04460598641E0C804B808B800C9D0A246C43641E0A945F
:201D0000CB8012789200805804F0FBFD0499059809788900405804F077FD04990598097899
:201D2000890040580121039104F046FE0399049A059812789200805804F034FE0499059869
:201D400009788900405804F0D3FD0EB0B0BDB0B58CB00BAC079420700A9109A90A7022780E
:201D600047F25800C0F600008056097802F022FD2078410047F24400C0F60000405A04F01A
:201D8000FDF92078410047F24000C0F60000405A04F0F4F92078830047F24800C0F6000078
:201DA0000390C05847F23801C0F600010091C95847F26402C0F600020192D25801F00DF893
:201DC0000099039822789300C058C95847F25C02C0F600020492D25800F0FFFF0199039837
:201DE0002278920080588B58022102910122059201F080F801990398059A23789B00C05801
:201E0000CB580021069101F0BCF802990398049B059A2578AD0040595B5901F06BF8039848
:201E2000049B059A06992478A40000591B5901F0A8F807980078810047F25000C0F6000050
:201E40000890405804F0F7FE0699079A089812789200805805F023F80699079A089812781B
:201E60009200805804F0F5FF0699079A089812789200805804F0C7FF079908980978890038
:201E800040580A9904F04AFE07990898097889004058042104F0CEFF0799089809788900B9
:201EA0004058082104F0ECFF0799089809788900405804F00BFF07990898097889004058C0
:201EC000052104F03BFF07990898097889004058072104F022FF0CB0B0BD80B582B00A46AF
:201EE000014601A8017069460A700078820047F25000C0F600008058097804F090FEFFE75E
:201F000001A80078810047F25000C0F60000405840F2077104F0E3FE08B9FFE7F0E702B099
:201F200080BD80B503F0CDFC80BD81B000200090FFE700981D2806DCFFE700BFFFE700988D
:201F4000401C0090F5E701B0704783B0029000200190FFE701980299884214D2FFE700200B
:201F60000090FFE7009843F69721884206D8FFE700BFFFE70098401C0090F3E7FFE7019852
:201F8000401C0190E6E703B0704781B000900099062048430090FFE70098411E009148B11B
:201FA000FFE700BF00BF00BF00BF00BF00BF00BF00BFF1E701B07047704780B500F02AF805
:201FC0000620FFF73EFE04F0C3FF00F0F5F801F06AF880BD81B0EFF310800090009841F288
:201FE000C821C2F20001086072B601B0704780B540F60000002103F0A5FB80BD81B041F28B
:20200000C820C2F2000000680090009880F3108801B0704747F20001C4F2000108684FF27F
:20202000FC72CFF6FF7210400860704785B0049003A8017002A90A70049B40F20042C4F2BA
:202040000102116899431160049B40F20442C4F20102116899431160049B40F20842C4F250
:202060000102116899431160049B40F20C42C4F201021168994311600078019020B1FFE739
:202080000198012809D011E0049A40F20041C4F2010108681043086009E0049A40F20441C2
:2020A000C4F2010108681043086000E0FFE702A800780090032841D800998A0001A0801825
:2020C0008746C04600F006B800F015B800F024B800F033B8049A40F20841C4F201010868DA
:2020E00010430860049A40F20C41C4F2010108689043086023E0049A40F20841C4F20101D1
:20210000086890430860049A40F20C41C4F2010108681043086012E0049A40F20841C4F253
:202120000101086810430860049A40F20C41C4F2010108681043086001E000E0FFE705B016
:20214000704781B00090009840F21441C4F20101086001B0704782B0009040F21440C4F262
:20216000010000680099084204D0FFE701A90120087003E001A900200870FFE701A80078EA
:2021800002B0704782B0024601A8027000910078810040F2F440C2F20000405850B9FFE716
:2021A000009801A909788A0040F2F441C2F200018850FFE702B0704780B500F047FA80BDEC
:2021C00010B586B005900491039203A80078800730B1FFE7039803218843001D0290FFE7B5
:2021E000FFF7F8FE00200090FFE700980299884219D2FFE70499009A8B18D87800069C784B
:20220000240400195B781B02C018895C40180190059800994018019900F062F9FFE70098F6
:20222000001D0090E1E7FFF7E9FE06B010BD80B584B0039003A8C0780007002806D4FFE7FB
:2022400003980121C90640180390FFE703990020C90E029081B1FFE7039940F20002C0F65E
:2022600004020120002300939142019001D30098019001980290FFE70298C00708B9FFE707
:2022800012E003984FF20001CFF6FF710840039000F0E3F800F01CF8039800F034F800F0E9
:2022A00017F800F027F8FFE704B080BD81B001466846018001881F200A4602400120904037
:2022C000890942F20002C4F20202885001B0704780B540F20530FFF7E9FF40F20430FFF766
:2022E000E5FF40F20330FFF7E1FF40F20230FFF7DDFF80BD42F21001C4F20201086880223C
:2023000010430860704780B584B003900120000500F02AF8014602A80170007800BBFFE79C
:2023200042F21001C4F20201019108680222009210430860039842F21402C4F2020210601D
:2023400008684022104308600120000500F00CF8009A019902AB1870086890430860FFE7DC
:2023600002A8007804B080BD80B584B0039002A901200870FFE700F024F802A9087003985A
:20238000401E0390FFE702A8017800200129019005D1FFE70398411E88410190FFE70198D9
:2023A000C0070028E7D1FFE702A80078012804D1FFE702A905200870FFE702A8007804B086
:2023C00080BD81B069460020087042F20C00C4F202000068C00720B1FFE769460120087022
:2023E00037E042F20C00C4F202000068C006002804D5FFE769460420087029E042F20C0025
:20240000C4F2020000684007002804D5FFE76946022008701BE042F20C00C4F202000068CA
:202420000007002804D5FFE76946032008700DE042F20C00C4F2020000680004002804D512
:20244000FFE7694607200870FFE7FFE7FFE7FFE7FFE76846007801B0704742F21000C4F242
:2024600002000068000600280FD5FFE742F20401C4F2020140F22310C4F26750086048F690
:20248000AB10CCF6EF500860FFE7704780B586B00590049101200005FFF766FF014603A873
:2024A00001700078C0B9FFE742F21002C4F202020292116801200190014311600499059A24
:2024C00011600005FFF750FF019A029903AB1870086890430860FFE703A8007806B080BD2E
:2024E00080B586B00590049105A8C0780007002806D4FFE705980121C90640180590FFE712
:2025000005990020C90E039081B1FFE7059940F20002C0F6040201200023019391420290B0
:2025200001D30198029002980390FFE70398C00708B9FFE70CE0FFF790FFFFF7C9FE0598B5
:202540000499FFF7A3FFFFF7C3FEFFF7D3FEFFE706B080BD87B005AA108004A801704FF617
:20256000FF70C0F20F0003900020029043F20001C4F2000145F255500860FFE743F20C008E
:20258000C4F200000068012108400290FFE70398411E03910020019029B1FFE70298411E43
:2025A00088410190FFE70198C0070028E6D1FFE7029820B1FFE706A90020087042E004A850
:2025C000007843F20401C4F2000108604FF6FF70C0F20F000390FFE743F20C00C4F2000045
:2025E0000068022108400290FFE70398411E03910020009029B1FFE70298411E8841009040
:20260000FFE70098C0070028E6D1FFE7029820B1FFE706A90020087014E005A8008840F6B9
:20262000FF71084043F20801C4F20001086043F20001C4F200014AF6AA20086006A9012056
:202640000870FFE706A8007807B0704743F20001C4F200014AF6AA200860704743F200013C
:20266000C4F200014CF6CC400860704780B584B00020039002A90880FFE702A80088A0BB74
:20268000FFE701A900200880FFE701A8008801280DDCFFE700F0BAFC01A909884A0003A91C
:2026A0008852FFE70198401C01A90880EDE703A908884988884207DDFFE7039803A94988A6
:2026C000401A6946087006E003A840880399401A69460870FFE768460078032804DCFFE706
:2026E000039802A90880FFE7C7E702A8008804B080BD000080B586B00B4605A9088004A8B7
:20270000038003AB00931A70039A02AB1A700988028847F25010C0F6000003F045F8009865
:2027200000780190042800D993E001998A0001A08018874600F008B800F020B800F044B88A
:2027400000F053B800F074B805A8008804A90988091D884204DDFFE702A9012008700CE008
:2027600005A8008804A90988091F884204DAFFE702A903200870FFE7FFE76AE005A800889F
:2027800004A90988091F884213DAFFE702A90220087040F68620C2F200000178491C017012
:2027A0000078022804DBFFE702A902200870FFE74FE040F68621C2F2000100200870FFE748
:2027C0001E2001F07CFF44E005A8008804A90988091F884204DAFFE702A90320087003E0D9
:2027E00002A901200870FFE733E005A8008804A90988091D884210DDFFE740F68620C2F2D6
:2028000000000178491C01700078022804DBFFE702A904200870FFE71BE040F68621C2F249
:20282000000100200870FFE71E2001F08BFF10E005A8008804A90988091D884204DDFFE746
:2028400002A90120087003E002A903200870FFE7FFE702A8007806B080BD80B582B040F291
:202860002200C2F20000008800284FD0FFE740F22200C2F2000000210091018040F22060E0
:20288000C2F20000C38840F20E62C2F20002D38083889380438853800088108040F2FC503C
:2028A000C2F20000018040F64620C2F20000018040F22860C2F20000018040F64A20C2F2CF
:2028C0000000018040F68220C2F20000018040F68420C2F2000001800820FFF787F940F28B
:2028E000FA50C2F200000088022808D1FFE740F20861C2F200014FF6FF700880FFE740F2C5
:202900000201C2F2000102200880FFE740F64421C2F200010020088040F64A20C2F2000023
:202920000088A0B9FFE740F68422C2F200021088411C1180022806DCFFE702F049FF01A9E2
:202940000A20088084E001A90020088080E00120FFF7FFF890BBFFE740F22861C2F2000100
:202960000020088040F22062C2F20002108840F20E61C2F200010B88C31A3C205843528816
:2029800080184988401A3C2814DBFFE740F22060C2F20000C28840F20E61C2F20001CA80EB
:2029A00082888A8042884A800088088001A90B2008804DE001A90A20088049E040F20A61B3
:2029C000C2F20001087801221043087040F22860C2F200000188491C01800088032833DB36
:2029E000FFE740F22861C2F200010020088040F68221C2F200010888401C088040F2FA505B
:202A0000C2F20000008802280CD1FFE740F68220C2F2000000880B2804DBFFE701A90C20AB
:202A2000088015E040F22861C2F200010020088040F64A21C2F20001088040F68421C2F294
:202A400000010880FFE7FFE701A90A200880FFE701A8008802B080BD80B582B040F2220004
:202A6000C2F20000008800B98AE040F22201C2F200010020088040F2FC51C2F20001088089
:202A800040F68421C2F20001088040F22060C2F20000C28840F20E61C2F20001CA808288C4
:202AA0008A8042884A800088088040F2FA50C2F20000008800284AD1FFE740F20201C2F29E
:202AC00000010220088040F20A61C2F200010878FE221040087040F20001C2F20001002089
:202AE0000090088040F20401C2F200014FF6FF70088040F68C20C2F20000011D0246083260
:202B0000FDF721FF009840F65821C2F200010880FFE740F65820C2F2000000880F2815DC25
:202B2000FFE740F20800C2F20000016840F65820C2F200000288FF208854FFE740F65821DC
:202B4000C2F200010888401C0880E2E717E040F2FA50C2F20000008803280FD1FFE740F2B1
:202B60000201C2F200010720088040F20A61C2F200010878012210430870FFE7FFE7FFE77C
:202B800040F68422C2F200021088411C118040F20201C2F200010988884228DBFFE740F6B9
:202BA0004420C2F200000021018040F68420C2F2000001800820FFF719F8FFF7B6F9012057
:202BC000FEF7C7FF014640F65820C2F200000180008820B9FFE701A95520088010E008200A
:202BE0000121FFF703F801A90020088008E008200121FEF7FBFFFFE701A90A200880FFE727
:202C000001A8008802B080BD82B000900098FC2806D1FFE744F60F20C0F60000019005E0C4
:202C200044F68710C0F600000190FFE7019802B0704780B586B00490039103995520087078
:202C40000399AA2048700399002088700498007B0399C8700498007803990871049840783A
:202C6000039948710498C07803998871049840880399C8710498407903990872049880884E
:202C80000399487203980221082200F082F80399887203980B3002900498007B30B3FFE7AE
:202CA0000298049A9168127BFDF79CFA049988680A7B002100F06DF8014601A8018040781B
:202CC000039A0499097B8918C8720198039A0499097B8918087303990498007B4118962026
:202CE00048730498007B0E30059008E003990498007B41189620C8720C200590FFE7059807
:202D000006B080BD82B000904FF60150C0F60000007800024FF60051C0F600010978411811
:202D200040F65820C2F20000018000884FF6FF7188420ED0FFE70098808840F65821C2F2E2
:202D400000010988884204D1FFE701A9012008801BE040F20400C2F2000000884FF6FF71E7
:202D600088420ED0FFE70098808840F20401C2F200010988884204D1FFE701A902200880CF
:202D800003E001A900200880FFE701A8008802B0704785B0049003A8018002A8028001A9B3
:202DA000002008800090FFE7009802A9098888420FDAFFE70498009903AA12888918415CCE
:202DC0000198401801A90880FFE70098401C0090EAE701A8008805B0704786B00590049198
:202DE00003920598006A01900598406A009002A900200880FFE702A8008807281DD8FFE75A
:202E000002A801880398C840C00780B1FFE702A8018889000F228A400199914301910499AA
:202E2000008880008140019808430190FFE7FFE70298401C02A90880DDE702A90820088040
:202E4000FFE702A800880F281FD8FFE702A801880398C840C00790B1FFE702A801888900C6
:202E600020390F228A4000999143009104990088800020388140009808430090FFE7FFE703
:202E80000298401C02A90880DBE701980599086200980599486206B0704782B00190009105
:202EA00000980199886202B0704782B00190009100980199886102B0704782B00190009161
:202EC00000980199C86202B0704783B001900091019800690099084204D0FFE702A901206D
:202EE000087003E002A900200870FFE702A8007803B0704787B00690059104920393069895
:202F0000006801900698C068009002A900200880FFE702A800880F282BD8FFE702A80188A4
:202F20000398C840C007F0B1FFE702A801884900032213468B40019999430191059B0188AA
:202F400049008B40019919430191018849008A40009991430091049900884000814000987D
:202F600008430090FFE7FFE70298401C02A90880CFE701980699086000980699C86007B015
:202F8000704710B586B0059004A80170039202930078012806D1FFE7029A05994868104308
:202FA000486005E0029A0599486890434860FFE705988068009001A900200880FFE701A843
:202FC00000880F281DD8FFE701A801880298C840C00780B1FFE701A80188490003228A403B
:202FE0000099914300910399008840008140009808430090FFE7FFE70198401C01A9088048
:20300000DDE700980599886006B010BD80B582B000200B2101220192FEF7C1FB0198FEF7A3
:2030200070FCFFE70220FEF7A4FB08B9FFE7F9E70220FEF792FBFEF75DFC02B080BD80B5EB
:2030400084B003F05CFF40F2135003F097F840F2096003F093F80220019002F0EAFB019B98
:2030600040F60000C4F60000032100220292FFF741FF0298FEF7BEFA012103910846FEF710
:2030800059FA039807214904FEF736FB03990846FEF7E4FAFEF7CBFA0A20FEF756FFFEF7C7
:2030A00022FA04B080BD80B584B040F64422C2F200021088411C1180332817DBFFE7FDF79B
:2030C00010F940F64421C2F200010020039008800820029001210191FEF788FD0198FEF7E6
:2030E00034FF02980399FEF781FDFFE704B080BD80B584B003A9087040F65E21C2F2000126
:203100000888012210430880039840F22801C2F20001087040F21E60C2F20000008800B161
:203120001DE240F68720C2F2000000780190042800D9C0E101998A0001A080188746C04620
:2031400000F008B800F032B800F088B800F059B900F0FDB840F2E841C2F200010020088056
:2031600041F2CC21C2F20001088040F22800C2F200000078552818D1FFE740F68721C2F28E
:2031800000010120087040F22800C2F20000007840F2E843C2F200031A88511C198041F220
:2031A000DC21C2F200018854FFE78BE140F22800C2F200000078AA2829D1FFE740F6872119
:2031C000C2F200010220087040F22800C2F20000007840F2E843C2F200031A88511C19805E
:2031E00041F2DC21C2F20001885440F22A60C2F200000188491C0180008838B9FFE740F29E
:203200002A61C2F2000101200880FFE725E040F22800C2F200000078552816D1FFE740F6D4
:203220008721C2F200010120087040F22800C2F20000007840F2E841C2F200010A8841F23D
:20324000DC21C2F20001885406E040F68721C2F2000100200870FFE7FFE733E140F2280095
:20326000C2F20000017840F2E840C2F2000003885A1C028041F2DC22C2F20002D1540088FC
:203280000B2856D1FFE741F2CC20C2F20000007840F22801C2F200010978884207D0FFE78B
:2032A00040F68721C2F200010020087040E041F2DC21C2F2000188780002C978411841F20F
:2032C000D020C2F200000180008840F20111884207DBFFE740F68721C2F200010020087040
:2032E00025E041F2D020C2F20000008838B9FFE740F68721C2F200010320087016E040F639
:203300008721C2F200010420087041F2D020C2F20000008840F2EC41C2F20001086041F2A6
:20332000CC21C2F2000100200880FFE7FFE7FFE70CE040F22800C2F20000027841F2CC21FD
:20334000C2F20001088880180880FFE7BAE040F22800C2F20000007840F2E843C2F20003EE
:203360001A88511C198041F2DC21C2F20001885440F2EC40C2F200000168491E0160006839
:20338000801C38BBFFE741F2CC20C2F20000008840F2E841C2F20001098841F2DC22C2F2D7
:2033A00000028A18911E09780902521E12788918884207D0FFE740F68721C2F20001002059
:2033C000087006E040F68721C2F2000103200870FFE715E040F2EC40C2F2000000680028E4
:2033E0000DD4FFE740F22800C2F20000027841F2CC21C2F20001088880180880FFE7FFE72D
:2034000060E040F22800C2F200000078962807D0FFE740F68721C2F200010020087049E017
:2034200040F22800C2F20000017840F2E843C2F200031A88501C188041F2DC20C2F2000068
:203440000090815440F68722C2F2000205211170017940F66022C2F20002117041795170E7
:2034600081790902C379C9185180017A0902437AC9189180807878B9FFE741F2DC20C2F232
:203480000000C07840B9FFE740F66021C2F200010020087388600CE041F2DC20C2F2000057
:2034A000C27840F66021C2F200010A730B308860FFE7FFE706E040F68721C2F20001002061
:2034C0000870FFE703A8017847F2E900C0F6000002F06AF940F68720C2F200000078052807
:2034E0003CD1FFE747F2D600C0F6000002F05CF940F68721C2F200010020087040F204006C
:20350000C2F2000000884FF6FF71884213D1FFE740F66020C2F200004078FC280BD1FFE71E
:2035200040F66020C2F20000408840F20401C2F200010880FFE740F20A61C2F2000108782D
:2035400001221043087040F66020C2F200004078FFF75AFB029002988047FFE716E040F20F
:203560001E60C2F20000008802280ED1FFE740F22800C2F20000017840F2F940C2F20000FC
:203580000170012103F006F8FFE7FFE70620FEF758FB03F0DDFCFEF70FFE04B080BD0000AE
:2035A00080B584B040F65A21C2F200010888401C088040F22060C2F20000C1880A31C1809D
:2035C000C08840F2E83188424FDBFFE740F22062C2F200020021D1809088401C908040F6E8
:2035E0004620C2F200000288521E0280405E002807D5FFE740F64621C2F2000100200880B3
:20360000FFE740F64820C2F200000188491E01800021405E002807D5FFE740F64821C2F205
:20362000000100200880FFE740F22060C2F2000080883C2818DBFFE740F22060C2F20000EA
:20364000002181804188491C418040883C280ADBFFE740F22061C2F2000100204880088882
:20366000401C0880FFE7FFE7FFE740F22060C2F20000C0886E2834D1FFE740F68720C2F2F4
:203680000000007828B3FFE740F22A60C2F20000008840F22E61C2F20001098888420BD04D
:2036A000FFE740F22A60C2F20000008840F22E61C2F2000108800BE040F68721C2F20001B0
:2036C0000020087040F22E61C2F200010880FFE706E040F22E61C2F2000100200880FFE784
:2036E0002EE140F22060C2F20000C088782834D1FFE740F68820C2F20000007828B3FFE7B7
:2037000040F22C60C2F20000008840F23061C2F20001098888420BD0FFE740F22C60C2F2A9
:203720000000008840F23061C2F2000108800BE040F68821C2F200010020087040F2306127
:20374000C2F200010880FFE706E040F23061C2F2000100200880FFE7F1E040F20C60C2F237
:203760000000008800B1E9E040F22060C2F20000C088822800D0E1E0002140F64820C2F2EB
:203780000000405E012800DAD8E0002140F64820C2F20000405E1B2800DDCFE040F6872013
:2037A000C2F20000007800B1C7E008200121FEF71DFA40F65821C2F2000100200880FFE73D
:2037C00040F65822C2F200021088411C1180052801DCFFE7F4E740F64420C2F200000021C3
:2037E00001800820FEF702FAFEF79FFB0120FEF7B0F9014640F65820C2F20000018000882F
:2038000000B992E040F65821C2F2000100200880FFE70120FEF79DF9A0B1FFE740F65820FA
:20382000C2F200000188491C018000883C2808DBFFE740F2FE51C2F200010888401C088006
:2038400000E0E6E740F2FE50C2F20000008803285ADBFFE740F2FE51C2F2000100200390D0
:20386000088040F20A62C2F200021178FE231940117040F20001C2F20001088040F2040141
:20388000C2F200014FF6FF70088040F68C20C2F20000011D02460832FDF755F8039840F6EF
:2038A0005821C2F200010880FFE740F65820C2F2000000880F2815DCFFE740F20800C2F286
:2038C0000000016840F65820C2F200000288FF208854FFE740F65821C2F200010888401C62
:2038E0000880E2E740F64821C2F200010020088040F2FA51C2F20001088040F22201C2F2B8
:203900000001012008800FE040F65820C2F2000000883B2807DCFFE740F2FE51C2F20001C2
:2039200000200880FFE7FFE706E040F2FE51C2F2000100200880FFE7FFE7FFE7FFE7FFE7D1
:2039400040F22060C2F20000C18845F62940CCF28F2048434BF65001C0F21E5140180321ED
:20396000C8414AF61461C0F24711884200D9AAE1002140F64820C2F20000405E002800DD3B
:203980009FE140F2FE51C2F200010020088040F64821C2F20001088040F2FA50C2F20000BD
:2039A00000880290032800D97DE102998A0001A08018874600F006B800F043B800F085B89A
:2039C00000F0D7B8FFF748F8014640F65820C2F200000180008855281DD1FFE740F2FA51B2
:2039E000C2F20001012001900880FDF7CEFC019A40F22200C2F20000028040F20A61C2F2A4
:203A0000000108781043087040F20861C2F200010020088014E040F65820C2F20000008884
:203A200008B9FFE70BE040F65820C2F2000000880A2802D1FFE700BF00E0FFE7FFE7FFE7CE
:203A40003EE140F20860C2F2000000884FF6FF7188420DD1FFE740F2FA51C2F200010220DA
:203A6000088040F22201C2F20001012008802BE0FEF7F3FE014640F65820C2F200000180F0
:203A800000880B2807D1FFE740F22201C2F200010120088017E040F65820C2F20000008819
:203AA0000A2802D1FFE700BF0CE040F2FA51C2F200010020088040F22201C2F2000101206B
:203AC0000880FFE7FFE7FFE7FAE0FEF7C6FE014640F65820C2F20000018000880B2808D05C
:203AE000FFE740F65820C2F2000000880C280DD1FFE740F2FA51C2F200010320088040F2EF
:203B00002201C2F200010120088031E040F65820C2F2000000880A2814D1FFE740F2086092
:203B2000C2F20000008860B9FFE740F2FA51C2F200010120088040F22201C2F200010880DD
:203B4000FFE714E040F65820C2F20000008868B9FFE740F2FA51C2F200010020088040F28E
:203B60002201C2F2000101200880FFE7FFE7FFE7A6E0FEF771FF014640F65820C2F200007E
:203B80000180008855280DD1FFE740F20A62C2F2000210780121084310700820FEF726F8D7
:203BA00000BF7FE040F65820C2F20000008800284ED1FFE740F20A61C2F200010878FE22DE
:203BC0001040087040F20001C2F200010020088040F20402C2F200024FF6FF71118040F623
:203BE0005821C2F200010880FFE740F65820C2F2000000880F2815DCFFE740F20800C2F243
:203C00000000016840F65820C2F200000288FF208854FFE740F65821C2F200010888401C1E
:203C20000880E2E740F2FA51C2F200010020088040F22201C2F200010120088040F68C20C4
:203C4000C2F20000011D02460832FCF77CFE28E040F65820C2F2000000880A281FD1FFE7A9
:203C600000BF40F22060C2F20000008840F20E61C2F200010988401A182190FBF1F0072882
:203C80000CDBFFE740F2FA51C2F200010120088040F22201C2F200010880FFE700E0FFE73E
:203CA000FFE7FFE70CE040F2FA51C2F200010020088040F22201C2F2000101200880FFE7D9
:203CC00000E0FFE7FFE740F22060C2F20000C28840F21661C2F20001CA8082888A80428802
:203CE0004A800088088004B080BD80B58EB040F65C20C2F200000188491C0180018845F6ED
:203D00002940CCF28F2048434BF65001C0F21E5140180122D041884200D9CCE040F2000082
:203D2000C2F200000088002847D0FFE740F20000C2F200000088800600281AD5FFE7002110
:203D40000D910846FDF752FF0D990120FDF74EFF0D990220FDF74AFF0D990320FDF746FF23
:203D60000D990420FDF742FF0D990520FDF73EFF1AE000200C9001210B91FDF737FF0B9807
:203D80000C99FDF733FF0B990220FDF72FFF0C990320FDF72BFF0B990420FDF727FF0C9903
:203DA0000520FDF723FFFFE740F20001C2F2000108882022504008807CE000210846FDF751
:203DC00015FF01210A910846FDF710FF0A9A40F65E21C2F2000108889043088040F20A602C
:203DE000C2F20000007802210840012811DBFFE704200121FDF7FAFE05200021FDF7F6FED1
:203E000040F20A61C2F200010878FD221040087009E0042000210991FDF7E8FE0999052080
:203E2000FDF7E4FEFFE740F20A60C2F200000078C007A0B3FFE740F20860C2F20000008828
:203E40004FF6FF71884215D1FFE70220069000210591FDF7CBFE059903200790FDF7C6FEDB
:203E6000069801210891FDF7C1FE07980899FDF7BDFE13E00220029000210491FDF7B6FE42
:203E8000049903200390FDF7B1FE02980121FDF7ADFE03980499FDF7A9FEFFE709E002200D
:203EA00000210191FDF7A2FE01990320FDF79EFEFFE7FFE7FFE740F22600C2F20000008828
:203EC0004FF6FF71884228D0FFE740F22601C2F200010888401E08800004E8B9FFE740F640
:203EE0007020C2F2000040F2F941C2F200010091FEF79FFE0246009840F65821C2F20001F6
:203F00000A80098802F00EFB40F22601C2F200014FF6FF700880FFE7FFE70EB080BD00007A
:203F200080B584B003A90870039840F22901C2F20001087040F68820C2F200000078029034
:203F4000042800D9BFE102998A0001A08018874600F008B800F032B800F088B800F059B9D5
:203F600000F0FDB840F2EA41C2F200010020088041F2CE21C2F20001088040F22900C2F274
:203F800000000078552818D1FFE740F68821C2F200010120087040F22900C2F200000078A9
:203FA00040F2EA43C2F200031A88511C198041F2DC31C2F200018854FFE78BE140F22900C5
:203FC000C2F200000078AA2829D1FFE740F68821C2F200010220087040F22900C2F20000C6
:203FE000007840F2EA43C2F200031A88511C198041F2DC31C2F20001885440F22C60C2F248
:2040000000000188491C0180008838B9FFE740F22C61C2F2000101200880FFE725E040F298
:204020002900C2F200000078552816D1FFE740F68821C2F200010120087040F22900C2F2A5
:204040000000007840F2EA41C2F200010A8841F2DC31C2F20001885406E040F68821C2F2FA
:20406000000100200870FFE7FFE733E140F22900C2F20000017840F2EA40C2F200000388A4
:204080005A1C028041F2DC32C2F20002D15400880B2856D1FFE741F2CE20C2F200000078F7
:2040A00040F22901C2F200010978884207D0FFE740F68821C2F200010020087040E041F268
:2040C000DC31C2F2000188780002C978411841F2D220C2F200000180008840F20111884292
:2040E00007DBFFE740F68821C2F200010020087025E041F2D220C2F20000008838B9FFE78F
:2041000040F68821C2F200010320087016E040F68821C2F200010420087041F2D220C2F271
:204120000000008840F2F041C2F20001086041F2CE21C2F2000100200880FFE7FFE7FFE746
:204140000CE040F22900C2F20000027841F2CE21C2F20001088880180880FFE7BAE040F2B1
:204160002900C2F20000007840F2EA43C2F200031A88511C198041F2DC31C2F2000188545B
:2041800040F2F040C2F200000168491E01600068801C38BBFFE741F2CE20C2F2000000889E
:2041A00040F2EA41C2F20001098841F2DC32C2F200028A18911E09780902521E12788918ED
:2041C000884207D0FFE740F68821C2F200010020087006E040F68821C2F200010320087017
:2041E000FFE715E040F2F040C2F20000006800280DD4FFE740F22900C2F20000027841F2BB
:20420000CE21C2F20001088880180880FFE7FFE760E040F22900C2F200000078962807D022
:20422000FFE740F68821C2F200010020087049E040F22900C2F20000017840F2EA43C2F2A8
:2042400000031A88501C188041F2DC30C2F200000190815440F68822C2F20002052111701F
:20426000017940F67022C2F2000211704179517081790902C379C9185180017A0902437A14
:20428000C9189180807878B9FFE741F2DC30C2F20000C07840B9FFE740F67021C2F2000197
:2042A0000020087388600CE041F2DC30C2F20000C27840F67021C2F200010A730B30886046
:2042C000FFE7FFE706E040F68821C2F2000100200870FFE703A8017847F2E900C0F600001E
:2042E00001F062FA40F21E60C2F200000088009020B3FFE70098012804D0FFE700980228FF
:204300000ED052E040F22900C2F20000017840F2F940C2F200000170012102F03BF945E008
:2043200040F22900C2F20000017840F2F940C2F200000170012102F0F5F837E040F688206F
:20434000C2F20000007805282ED1FFE747F2C400C0F6000001F028FA40F68821C2F20001C5
:204360000020087040F67020C2F200004078810040F24460C2F20000405868B1FFE740F69B
:204380007020C2F200004078810040F24460C2F200004058804706E040F20460C2F2000087
:2043A00000688047FFE7FFE700E0FFE70620FDF748FC02F0CDFDFDF7FFFE04B080BD40F20E
:2043C0002060C2F200000021018041808180C180C28840F21661C2F20001CA8082888A80FE
:2043E00042884A8000880880704780B584B003A902910870FDF70EFE0620FDF722FC02F018
:20440000A7FDFDF7D9FE029801210191009040F68C20C2F20000011D0246083240F20123C3
:20442000FCF7CAF904B080BD80B5FDF7F3FD40F2E441C2F200010868401C08600620FDF762
:2044400000FC02F085FDFDF7B7FEFFF7A9F880BD80B584B040F2115001F090FE0920C00605
:2044600002900122009241F2000303931146FEF741FD00990298039B00220192FEF781FDA6
:20448000019A029840F600031146FEF733FD02980399FEF70AFD04B080BD80B5FDF7BAFD2F
:2044A0000620FDF7CEFB02F053FDFDF785FEFFF71CFC80BD80B586B00020059040F6B830D7
:2044C0000421FEF747F8FEF7C9F806200390FDF755FB0398FDF7B5FB02F03AFDFDF76CFE0A
:2044E00047F28D00C0F6000001F033FF40F61C1001F027FE38B1FFE747F2A900C0F600003E
:2045000001F052F9FFE747F29C00C0F6000001F04BF9FDF75FFDFFF752FF01F06BFE40F692
:20452000AC60C2F20000011D02460832FCF70BFA40F68C20C2F20000011D02460832FCF7FA
:2045400002FAFDF702FA01F039FFFDF757FDFCF709FFFFF77DFF0620FDF773FB02F0F8FC23
:20456000FDF72AFEFFE7FCF751FF01F03BFF40F2E440C2F20000016845F62940CCF28F2047
:2045800048430221C84145F62841C0F28F21884201D8FFE7FFE740F6AC60C2F20000011DDB
:2045A00040F20122FCF765F900280CDCFFE740F68C20C2F20000011D40F20122FCF759F911
:2045C000012846DBFFE70620FDF73BFB02F0C0FCFDF7F2FD40F6AC60C2F20000011D40F284
:2045E0000122FCF746F9012813DBFFE704A80290009040F6AC60C2F20000011D0246083205
:2046000040F20123FCF762F902980078FFF788FCFFE740F68C20C2F20000011D40F201227B
:20462000FCF727F9012813DBFFE704A80190009040F68C20C2F20000011D0246083240F235
:204640000123FCF743F901980078FEF751FDFFE702E0FDF7CCFCFFE785E782B001200190F9
:20466000019880F31088FCF75AFE80B586B040F2135001F083FD40F60000C4F60000029058
:20468000012104910022039204230193FEF732FC019B02980399049AFEF773FC0298039AC3
:2046A000049908230593FEF725FC02980399049A059BFEF766FC00F035F806B080BD80B574
:2046C00084B003A9088040F60000C4F600000821FEF7EBFB02A900200880FFE702A8008813
:2046E00003A9098888421BDAFFE740F60000C4F60000009004210191FEF7CFFB40F2BC20D4
:20470000FDF743FC00980199FEF7CFFB40F22C10FDF73BFCFFE70298401C02A90880DDE709
:2047200004B080BD80B582B040F60000C4F6000001900421FEF7B9FB01980821FEF7B5FB6B
:2047400002B080BD80B584B003A9088040F60000C4F600000421FEF7A8FB02A900200880CD
:20476000FFE702A8008803A9098888421BDAFFE740F60000C4F60000009008210191FEF70F
:204780008CFB40F2BC20FDF700FC00980199FEF78CFB40F22C10FDF7F8FBFFE70298401CB5
:2047A00002A90880DDE7FFF7BDFF0520FDF7CDFB04B080BD80B584B00A46014603A8019042
:2047C000017002A90A700022009280560978FCF762FD009901984056FCF742FD04B080BDFB
:2047E00082B001900091019800994FF68072C1F6FF72114008434EF60851CEF20001086072
:20480000BFF34F8F02B0704780B582B040F67020C2F20000FEF776FA014640F65820C2F2B0
:20482000000001800088012833D1FFE740F23460C2F200000090017860221143017001226F
:20484000427040F67021C2F200018B8843804988818041F2DC31C2F20001F1230B704A7044
:2048600003228A700022CA7081600421017340F2F941C2F200010191FEF7DBF902460198E6
:2048800040F65821C2F200010A80098801F082FE02E000F03FFAFFE702B080BD80B584B0DF
:2048A00040F67020C2F20000FEF72CFA014640F65820C2F2000001800088012861D1FFE770
:2048C00040F23461C2F200010878602210430870FC20487040F67020C2F2000082884A806D
:2048E0004088888040F20A60C2F200000178012001405520002202920129039001D002986A
:204900000390039840F20C02C2F20002107040F20400C2F20000417851700188917040F2D3
:204920000861C2F200014B78D3700988117100884FF6FF71884207D1FFE740F20C01C2F288
:20494000000100200870FFE740F23460C2F2000040F20C01C2F2000181601521017340F2AD
:20496000F941C2F200010191FEF763F90246019840F65821C2F200010A80098801F00AFE0C
:20498000FFE704B080BD80B582B040F20A61C2F20001087802221043087040F66020C2F2AE
:2049A000000040F2F941C2F200010191FEF741F90246019840F65821C2F200010A800988B5
:2049C00001F0E8FD40F64821C2F200011E20088040F65420C2F200000088B0B1FFE740F684
:2049E0006020C2F20000407878B9FFE7FCF73AFD40F20001C2F200010120088040F654214E
:204A0000C2F2000100200880FFE702B080BD80B582B040F65421C2F200010020088040F6BF
:204A20006020C2F20000007B15284DD1FFE740F66020C2F200008168C87800020979411816
:204A400040F65820C2F2000001800088E8B1FFE740F64A21C2F200010120088040F65820BF
:204A6000C2F20000018840F295124FF6FF70002300939142019001DC00980190019840F281
:204A80000861C2F200010880FFE740F22060C2F20000C28840F64C21C2F20001CA8082882E
:204AA0008A8042884A800088088040F20800C2F20000006840F66021C2F200018968491D2F
:204AC0001022FBF78FFBFFE702B080BD10B588B040F67020C2F20000FEF714F9014640F65D
:204AE0005820C2F2000001800088012800D0AAE040F67020C2F20000007B002851D1FFE7D9
:204B000040F65821C2F2000100200880FFE740F65820C2F2000000880F2819DCFFE740F671
:204B20005821C2F2000108884FF60452C0F60002805C0A8841F2DC31C2F200018854FFE73F
:204B400040F65821C2F200010888401C0880DEE740F23460C2F2000060210170F821417082
:204B600040F67021C2F200018A8842804988818041F2DC31C2F2000181601021017340F266
:204B8000F941C2F200010691FEF753F80246069840F65821C2F200010A80098801F0FAFC03
:204BA00050E040F67020C2F20000007B102836D1FFE74FF60150C0F60000007800024FF6A0
:204BC0000051C0F600010978401841F2D221C2F20001039108804FF600500490FDF727FBBE
:204BE000039904980988FDF77BFC40F67020C2F20000059081684FF604501022FDF7E0FAF0
:204C00000598836842680168C06840F2F944C2F2000401940090002001F0A5FB11E040F6AD
:204C20007020C2F20000836842680168C06840F2F944C2F2000401940090002001F046FC6B
:204C4000FFE7FFE7FFE708B010BD10B582B040F67020C2F20000FEF755F8014640F6582075
:204C6000C2F200000180008801284ED1FFE740F67020C2F2000080680078552814D1FFE727
:204C8000FCF7F0FB40F67020C2F20000836842680168C06840F2F944C2F20004019400904A
:204CA000002001F060FB2FE040F67020C2F2000080680078AA2814D1FFE7FCF766FB40F678
:204CC0007020C2F20000836842680168C06840F2F944C2F2000401940090002001F043FBCF
:204CE00011E040F67020C2F20000836842680168C06840F2F944C2F20004019400900020B7
:204D000001F0E4FBFFE7FFE702E000F003F8FFE702B010BD80B584B040F67020C2F20000E2
:204D2000818841F2D220C2F200000180008840F20401C2F200010988884214D0FFE741F244
:204D4000D220C2F2000000884FF60151C0F60001097809024FF60052C0F6000212788918D1
:204D6000884267D1FFE70820FCF7DEFE58B1FFE708200021FCF73AFF40F22601C2F20001E2
:204D8000322008804FE040F22600C2F2000000884FF6FF71884245D1FFE740F67020C2F281
:204DA0000000029040F2F941C2F200010191FDF740FF0246019840F65821C2F200010A80AC
:204DC000098801F0AFFB0298407803900A2820D0FFE703980E2804D0FFE70398122811D079
:204DE0001EE040F67020C2F2000000788006002807D5FFE740F65421C2F20001012008804A
:204E0000FFE70EE040F20001C2F200010020088007E040F20C61C2F200010120088000E06A
:204E2000FFE7FFE7FFE740F64821C2F200011E200880FFE704B080BD10B582B040F20A603C
:204E4000C2F200000078C007B0B1FFE74FF60050FDF7EDF940F67020C2F20000836842689A
:204E60000168C06840F2F944C2F2000401940090002001F078FAFFE702B010BD10B584B074
:204E800040F20A60C2F200000078C007002873D0FFE740F67020C2F20000007B02286BD1D7
:204EA000FFE740F67020C2F200008168087800024978411841F2D220C2F20000018000882B
:204EC000012858DBFFE741F2D220C2F200000088FF2850DCFFE740F65821C2F20001002072
:204EE0000880FFE740F65820C2F2000000880F2819DCFFE740F65821C2F2000108884FF60F
:204F00000452C0F60002805C0A8841F2DC31C2F200018854FFE740F65821C2F2000108886A
:204F2000401C0880DEE74FF600500290FDF77FF9029841F2D221C2F200010988FDF7D0FA71
:204F400041F2DC31C2F200014FF604501022FDF737F940F67020C2F20000836842680168F5
:204F6000C06840F2F944C2F2000401940090002001F0F9F9FFE7FFE704B010BD80B582B006
:204F800040F20A60C2F200000078C007002843D0FFE740F67020C2F20000007B02283BD136
:204FA000FFE740F67020C2F200008168087800024978411840F65820C2F2000001800088A1
:204FC000FF2828DDFFE740F65820C2F2000000884FF6FE7188421EDCFFE740F65820C2F215
:204FE00000000090008840F20401C2F20001088040F67020C2F2000040F2F941C2F200018A
:205000000191FDF716FE0099024601980A80098801F088FAFFE7FFE702B080BD80B584B0CA
:2050200040F20A60C2F200000078C00750B3FFE740F67020C2F20000007B102822D1FFE7F2
:2050400040F67020C2F20000019040F2F941C2F200010391FDF7EDFD019940F65822C2F2B4
:2050600000020292108040F20800C2F20000006889681022FBF7B6F802990398098801F039
:2050800051FAFFE704B080BD80B540F67020C2F20000FDF737FE014640F65820C2F200006D
:2050A00001800088012816D1FFE740F67020C2F20000007B01280ED1FFE740F67020C2F294
:2050C00000008068007840F21E61C2F20001088001F090F8FFE780BDB0B582B040F6702089
:2050E000C2F20000FDF70EFE014640F65820C2F200000180008802281CD1FFE740F20C61AE
:20510000C2F200010020088040F64821C2F20001088040F67024C2F20004A3686268216876
:20512000E46840F2F945C2F200050195009401F01AF9FFE702B0B0BDB0B584B040F6702068
:20514000C2F20000FDF7DEFD014640F65820C2F2000001800088012800D0ABE040F67020D0
:20516000C2F20000007B012815D1FFE740F67020C2F200008068007840F65721C2F20001CE
:205180000870D0B1FFE740F65720C2F200000078FF2812D0FFE740F67020C2F20000836803
:2051A00042680168C06840F2F944C2F2000401940090002001F08AF97BE040F65720C2F218
:2051C0000000007848BBFFE747F2FF00C0F6000000F0EAFA40F68021C2F200010220088076
:2051E00040F22401C2F200010420088040F20061C2F200010020088040F67024C2F2000485
:20520000A36862682168E46840F2F945C2F200050195009401F0A7F84AE047F2EF00C0F6F9
:20522000000000F0C1FA40F68020C2F200000088042825D1FFE740F67020C2F20000836844
:2052400042680168C06840F2F944C2F20004019400900020039001F086F8039840F6802133
:20526000C2F20001088040F22401C2F200014FF6FF7008800120FCF768FEFFF7EEF916E05C
:2052800040F68021C2F200010020088040F67024C2F20004A36862682168E46840F2F9453E
:2052A000C2F200050195009401F010F9FFE7FFE7FFE7FFE704B0B0BDB0B584B040F67020F9
:2052C000C2F20000FDF71EFD014640F65820C2F200000180008801285AD1FFE740F6802049
:2052E000C2F20000008803283AD1FFE740F67020C2F20000007860210840402807D1FFE775
:2053000040F22401C2F2000100200880FFE7FCF761FE01F031FEFCF771FE40F67020C2F2A5
:205320000000007860210840202807D1FFE740F68021C2F2000104200880FFE740F6702042
:20534000C2F20000836842680168C06840F2F944C2F2000401940090002001F004F816E024
:2053600040F68021C2F200010020088040F67024C2F20004A36862682168E46840F2F9455D
:20538000C2F200050195009401F0A0F8FFE702E0FFF7C0FCFFE704B0B0BDB0B58AB040F64B
:2053A0007020C2F20000FDF7ADFC014640F65820C2F2000001800088012800D0A1E140F6A9
:2053C0007020C2F2000000781F21084040F65721C2F20001087040F68020C2F2000000889C
:2053E000022817D1FFE740F22400C2F2000000884FF6FF7188420DD0FFE740F20060C2F29B
:205400000000008840F65621C2F20001097888421CDAFFE740F68021C2F200010020088047
:2054200040F20061C2F20001088040F67024C2F20004A36862682168E46840F2F945C2F24C
:2054400000050195009401F041F859E140F20060C2F20000008840F65721C2F20001097807
:20546000884200D01CE140F20060C2F200000188491C01800088202807D1FFE740F20061BF
:20548000C2F2000100200880FFE740F67020C2F20000007B40F6FF714018000B06A90870A4
:2054A00009A900200880FFE709A8008806A90978884210DAFFE709A80088000344F2000136
:2054C000C0F601014018FCF7B2FEFFE70998401C09A90880E8E7FCF77DFD09A90020088066
:2054E000FFE709A8008840F67021C2F20001097B884200DBCDE00620FCF7A3FB01F028FD6E
:20550000FCF75AFE0020089040F6A860C2F200000078002850D0FFE707A900200870FFE7C2
:2055200007A80078032834DCFFE740F6A860C2F200000078A0B1FFE707A8007840F6A46120
:20554000C2F20001095CC000814008984018089040F6A861C2F200010878401E087012E0E4
:2055600040F67020C2F20000806809A90A88825C07A80078C000824008988018089009988D
:20558000401C0880FFE7FFE70798401C07A90870C6E740F22400C2F200000590008844F22E
:2055A0000001C0F6010140180899FCF799FF05990888001D08806BE009A80088001D40F604
:2055C0007021C2F20001097B88420ADDFFE740F67020C2F2000000786021084020282BD16B
:2055E000FFE740F67020C2F20000816809A8049002888B18D87800069C78240400195B7872
:205600001B02C018895C4018089040F22400C2F200000390008844F20001C0F60101401854
:205620000899FCF75DFF039A04991088001D10800998001D08802AE040F6A861C2F20001B7
:2056400000200870FFE709A8008840F67021C2F20001097B884219DAFFE740F67020C2F276
:205660000000806809AA1188405C40F6A861C2F200010C7840F6A463C2F2000318550998E0
:20568000401C10800878401C0870DCE7FFE7FFE727E740F6A861C2F2000100200870FFE7BB
:2056A00040F67020C2F20000007860210840202812D1FFE740F22400C2F20000018844F255
:2056C0000000C0F60100FCF70BFF40F68021C2F2000103200880FFE7FCF790FC40F67020B4
:2056E000C2F20000836842680168C06840F2F944C2F2000401940090002000F034FEFFE75C
:20570000FFE70AB0B0BD80B584B003A902910870FCF780FC0620FCF794FA01F019FCFCF74D
:205720004BFD029801210191009040F6AC60C2F20000011D0246083240F20123FBF73CF831
:2057400004B080BD82B00190684601704EF61051CEF20001086804229043086047F2000105
:20576000C4F2000108684FF2FC72CFF6FF7210400860019840F6000188420AD1FFE747F2D1
:205780000001C4F20001086840F6000210430860FFE76846007810B9FFE730BF02E020BF83
:2057A00020BFFFE702B0704783B080B583B0079306920591029005A801900299002001AA22
:2057C000FAF730FE03B080BC01BC03B08646704780B582B040F23460C2F200000021017055
:2057E000FC2242704FF60152C0F60002127812024FF60053C0F600031B78D218428040F229
:205800000402C2F2000212888280017340F2F941C2F200010191FDF70CFA0246019840F6F8
:205820005821C2F200010A80098800F07BFE02B080BD81B0009041F20401C4F202010868A5
:2058400043F6FF72CFF6FF721040086041F23001C4F2020108684FF6FF62C3F6FF72104003
:20586000086000980F281AD8FFE700988007020C41F20401C4F20201086810430860009838
:205880008008820741F23001C4F20201086810430860086840F2001210430860FFE70098C2
:2058A00010280CD1FFE741F23001C4F2020108684FF6FF62CFF6FF7210400860FFE701B035
:2058C000704741F22401C4F20201086801221206104308607047000000B5A3B022A9087098
:2058E00000200290219020901F901E901D901C901B901A90199018901790169015901490A3
:2059000013901290119010900F900E9040F20671C0F608110D9140F20121C0F203410C91C7
:205920000B900A9009910890079106900591049041F20400C4F2020000680C210840800854
:20594000209041F22C00C4F202000068012149040840C00B1F9020981F99084321902198C2
:205960000390042800D99DE003998A0001A080188746C04600F008B800F00CB800F01AB8BA
:2059800000F00EB800F012B842F20040C0F2F4001B908DE041F20020C0F27A001B9087E0D4
:2059A00046F60040C0F2DC201B9081E047F600501B907DE041F20400C4F2020001683F2263
:2059C00092041140890C139100680121C9060840C00E129012988001139940181390139819
:2059E0000F2804D3FFE71398401C13900BE013980F2803D1FFE71020139003E01398801C85
:205A00001390FFE7FFE741F20400C4F202000068032109040840000C11901198A0B9FFE7B2
:205A200041F22C00C4F2020000680F210840401C1090109942F20040C0F2F400B0FBF1F123
:205A4000139848431B902CE01198012814D1FFE741F22C00C4F2020000680F210840401C69
:205A60001090109941F20020C0F27A00B0FBF1F1139848431B9013E041F22C00C4F20200E6
:205A800000680F210840401C1090109946F60040C0F2DC20B0FBF1F1139848431B90FFE703
:205AA000FFE705E042F20040C0F2F4001B90FFE741F20400C4F202000168C9B209090F91EB
:205AC0000F9A0AA9895C0E911B990E9AD1401A91016840F200721140090A0F910F9A08A963
:205AE000895C0E911A990E9AD1401991006843F600010840C00A0F900F9906A8405C0E9029
:205B00001A980E99C840189022A8007801900B2800D912E301998A0001A080188746C04678
:205B200000F016B800F017B800F018B800F019B800F01AB800F0F7B800F042BA00F07FBAF1
:205B400000F0BCBA00F03CB900F08FB900F0E2B91B981C90F2E21A981C90EFE219981C9078
:205B6000ECE218981C90E9E241F23000C4F20200006840F200110840884206D0FFE746F660
:205B80000040C0F2DC201790CAE041F20400C4F20200006880B2800B1E9041F23000C4F2EB
:205BA00002000068800F1D901E980090032800D9B4E000998A0001A08018874600F006B88A
:205BC00000F02EB800F056B800F080B81D9820B9FFE718984008179021E01D98012806D100
:205BE000FFE718980A21B0FBF1F0179016E01D98022806D1FFE71A980321B0FBF1F0179016
:205C00000BE01D98032806D1FFE71A980B21B0FBF1F0179000E0FFE7FFE7FFE7FFE77EE015
:205C20001D9820B9FFE718988008179021E01D98012806D1FFE718980C21B0FBF1F0179065
:205C400016E01D98022806D1FFE71A980521B0FBF1F017900BE01D98032806D1FFE71A986D
:205C60000D21B0FBF1F0179000E0FFE7FFE7FFE7FFE754E01D9830B9FFE718980621B0FB11
:205C8000F1F0179021E01D98012806D1FFE718980E21B0FBF1F0179016E01D98022806D122
:205CA000FFE71A980721B0FBF1F017900BE01D98032806D1FFE71A980F21B0FBF1F0179054
:205CC00000E0FFE7FFE7FFE7FFE728E01D9820B9FFE71898C00817901FE01D98012804D1FF
:205CE000FFE718980009179016E01D98022806D1FFE71A980921B0FBF1F017900BE01D981D
:205D0000032806D1FFE71A981121B0FBF1F0179000E0FFE7FFE7FFE7FFE700E0FFE7FFE760
:205D200017981C900AE241F23000C4F202000068800718B9FFE7189816903EE041F2300084
:205D4000C4F20200006803210840012803D1FFE71B98169030E041F23000C4F202000068E8
:205D600003210840022804D1FFE748F20000169021E041F23000C4F2020000680321084002
:205D8000032816D1FFE741F23000C4F202000068072189040840800C0F900F9904A8405C70
:205DA0000E900E9942F20040C0F2F400C840169000E0FFE7FFE7FFE7FFE716981C90BDE166
:205DC00041F23000C4F2020000688003800F18B9FFE71998169045E041F23000C4F20200E0
:205DE000006803210904084001210904884203D1FFE71B98169034E041F23000C4F2020087
:205E0000006803210904084001214904884204D1FFE748F20000169022E041F23000C4F2B2
:205E200002000068032109040840884216D1FFE741F23000C4F20200006807218904084068
:205E4000800C0F900F9904A8405C0E900E9942F20040C0F2F400C840169000E0FFE7FFE76E
:205E6000FFE7FFE716981C9068E141F23000C4F202000068C004800F18B9FFE719981690CF
:205E800045E041F23000C4F20200006841F60001084040F60001884203D1FFE71B981690C6
:205EA00034E041F23000C4F20200006841F60001084041F20001884204D1FFE748F20000D8
:205EC000169022E041F23000C4F20200006841F600010840884216D1FFE741F23000C4F267
:205EE00002000068072189040840800C0F900F9904A8405C0E900E9942F20040C0F2F400C1
:205F0000C840169000E0FFE7FFE7FFE7FFE716981C9013E141F23000C4F202000068400545
:205F2000800F18B9FFE71998159046E041F23000C4F20200006840F20061084040F20021EE
:205F4000884204D1FFE747F60050159034E041F23000C4F20200006840F20061084040F2E6
:205F60000041884204D1FFE748F20000159022E041F23000C4F20200006840F2006108401C
:205F8000884216D1FFE741F23000C4F202000068072189040840800C0F900F9904A8405CCF
:205FA0000E900E9942F20040C0F2F400C840159000E0FFE7FFE7FFE7FFE715981C90BDE067
:205FC00041F23000C4F2020000680007800F18B9FFE7199814902FE041F23000C4F2020072
:205FE00000680C210840042803D1FFE71B98149021E041F23000C4F2020000680C2108408E
:20600000082816D1FFE741F23000C4F202000068072189040840800C0F900F9904A8405CE8
:206020000E900E9942F20040C0F2F400C840149000E0FFE7FFE7FFE714981C907EE041F2DA
:206040003000C4F2020000688006800F18B9FFE7199814902FE041F23000C4F2020000683D
:2060600030210840042803D1FFE71B98149021E041F23000C4F202000068302108400828FD
:2060800016D1FFE741F23000C4F202000068072189040840800C0F900F9904A8405C0E90FA
:2060A0000E9942F20040C0F2F400C840149000E0FFE7FFE7FFE714981C903FE041F2300007
:2060C000C4F2020000680006800F18B9FFE7199814902FE041F23000C4F202000068C0218C
:2060E0000840042803D1FFE71B98149021E041F23000C4F202000068C0210840082816D157
:20610000FFE741F23000C4F202000068072189040840800C0F900F9904A8405C0E900E99B9
:2061200042F20040C0F2F400C840149000E0FFE7FFE7FFE714981C9000E0FFE71C9823B062
:2061400000BD82B0694608800888800941F20002C4F20202805809881F221140C840C00747
:2061600020B1FFE701A90120087003E001A900200870FFE701A8007802B0704781B0014618
:206180006846018000881F220146114001238B40810941F20002C4F20202885818438850F4
:2061A00001B0704781B001466846018000881F220146114001238B40810941F20002C4F20B
:2061C000020288589843885001B0704781B001466846018000881F220146114001238B40C9
:2061E000810941F20002C4F2020288581843885001B0704781B040F65821C2F200010020F6
:206200000880FFE740F65820C2F200000088FF2815D8FFE740F65820C2F2000000888200C0
:2062200040F24461C2F2000100208850FFE740F65821C2F200010888401C0880E2E740F221
:206240001E60C2F20000008800285BD1FFE740F24461C2F20001009144F67D60C0F6000060
:2062600040F2EC32885044F6CD20C0F6000040F2E032885044F63960C0F6000040F2E83228
:20628000885045F23910C0F60000086745F29B30C0F60000C86645F2B920C0F60000486627
:2062A00045F21D00C0F60000C86044F67D70C0F60000C86144F69D00C0F6000040F2F032C5
:2062C000885045F2D900C0F60000086644F60900C0F60000486044F64B40C0F6000040F264
:2062E000DC32885045F28900C0F60000D422885040F20461C2F2000144F61550C0F60000D3
:20630000086024E040F21E60C2F200000088012808D0FFE740F21E60C2F200000088022828
:2063200014D1FFE740F24461C2F2000145F28900C0F60000D422885040F20461C2F2000176
:2063400041F6B970C0F600000860FFE7FFE701B0704780B582B00190F9F7E2FF0198FFF733
:2063600023FA02B080BDB0B586B00A9C0B9D059404930392029101A90091087040F2346057
:20638000C2F200000021417060220270039A428002AA52888280017381600B99FCF749FC6B
:2063A0000146009840F65822C2F20002118000780B99128800F06BFB06B0B0BD80B541F270
:2063C000B800C2F20000011D02460832FAF7BBFA40F69840C2F20000011D02460832FAF7B8
:2063E000B2FA80BD80B584B041F2B800C2F20000011D40F20122FAF73CFA00280CDCFFE71C
:2064000040F69840C2F20000011D40F20122FAF730FA012858DBFFE70620FBF712FC00F0D4
:2064200097FDFBF7C9FEFFE741F2B800C2F20000011D40F20122FAF71CFA01281BDBFFE70B
:2064400003A80290009041F2B800C2F20000011D0246083240F20123FAF738FA02980178A4
:206460000020FBF73AFD0620FBF7EBFB00F070FDFBF7A2FED8E7FFE740F69840C2F200007F
:20648000011D40F20122FAF7F4F901281BDBFFE703A80190009040F69840C2F20000011DFA
:2064A0000246083240F20123FAF710FA019801780120FBF712FD0620FBF7C3FB00F048FDCA
:2064C000FBF77AFED8E7FFE704B080BDB0B586B00A9C0B9D059404930392029101A9009140
:2064E000087040F23460C2F20000FF214170602101700399418002A9498881800021017378
:2065000081600B99FCF795FB0146009840F65822C2F20002118000780B99128800F0B7FA46
:2065200006B0B0BD80B586B005900491059804A909880191009040F69840C2F20000011DC6
:206540000246083240F20123FAF736F947F23110C0F60000FFF728F900200390FFE70398C8
:20656000049988420ED2FFE705980399415C47F2E900C0F60000FFF717F9FFE70398401C5D
:206580000390ECE747F2E700C0F60000FFF70CF906B080BD80B586B005900491059804A9F2
:2065A00009880191009041F2B800C2F20000011D0246083240F20123FAF7FEF847F2111052
:2065C000C0F60000FFF7F0F800200390FFE70398049988420ED2FFE705980399415C47F2B7
:2065E000E900C0F60000FFF7DFF8FFE70398401C0390ECE747F2E700C0F60000FFF7D4F854
:2066000006B080BD85B00A4604A9087003A8027002789207130F0F229A40D2430292097856
:2066200002789207120F91400191007880080090032841D800998A0001A080188746C046C0
:2066400000F006B800F011B800F01CB800F027B8029A40F20801C4F2010108681040086089
:20666000019A08681043086027E0029A40F20C01C4F20101086810400860019A0868104334
:2066800008601AE0029A40F21001C4F20101086810400860019A0868104308600DE0029A8A
:2066A00040F21401C4F20101086810400860019A08681043086000E0FFE705B0704710B5F6
:2066C00086B000200590049041F20002C4F20202116801231B04194311600290FFE70298B1
:2066E000400B28B9FFE7FFE70298401C0290F6E7FFE70598401C059041F20000C4F20200DE
:2067000000680121490408400490FFE704990020019041B9FFE705984FF6FF71401A411EA7
:2067200088410190FFE70198C0070028E1D1FFE741F20000C4F2020000688003002802D425
:20674000FFE7FFE7FEE742F20001C4F2020108680122104306239843086041F20401C4F25A
:20676000020100910868086008680860086840F200431843086041F22C03C4F20203186890
:206780000F24A043186008684FF6FF73C7F6007318400860086819231B041843086041F293
:2067A0000001C4F202010868120610430860FFE741F20000C4F2020000688001002801D425
:2067C000FFE7F5E741F20401C4F20201086803900398032290430390039802221043039038
:2067E00003980860FFE741F20400C4F2020000680C210840082801D0FFE7F4E706B010BD9F
:2068000080B5FFF75CFF80BD81B000900099086880221043086001B0704780B588B0079022
:206820000798069001218907884228D0FFE7069840F20041C4F20001884229D0FFE70698BA
:2068400041F20001C4F2000188422AD0FFE7069841F20041C4F2000188422BD0FFE7069891
:2068600041F60001C4F20001884235D0FFE7069844F60041C4F20101884224D035E040F29E
:2068800000400590FFF7A2FC0598FFF78BFC2DE040F201400490FFF799FC0498FFF782FCC6
:2068A00024E040F204400390FFF790FC0398FFF779FC1BE040F205400290FFF787FC02982C
:2068C000FFF770FC12E040F20B300190FFF77EFC0198FFF767FC09E040F208400090FFF71B
:2068E00075FC0098FFF75EFC00E0FFE708B080BD81B000900099086801221043086001B02B
:20690000704782B0019000910098008801998862019801218907884208D0FFE7019840F22A
