:020000040800F2
:20000000081900206901000871010008730100080000000000000000000000000000000037
:20002000000000000000000000000000750100080000000000000000770100087901000840
:200040007B0100087B0100087B0100087B0100087B0100087B0100087B0100087B01000880
:200060007B0100087B0100087B0100087B0100087B0100087B0100087B0100087B01000860
:200080007B0100087B0100087B0100087B0100087B0100087B0100087B0100087B01000840
:2000A0007B010008B10A0008FF0A0008B30B00087B0100087B0100084D0B00087B01000836
:2000C0007B0100087B0100087B0100087B0100087B0100087B010008000000007B01000884
:2000E0007B0100087B0100087B0100087B010008000000000000000000000000A102000845
:20010000000000000000000000000000000000000000000000000000000000007B0100085B
:200120007B0100087B0100087B0100087B0100087B0100087B0100087B0100087B0100089F
:200140007B0100087B0100087B0100087B0100087B0100080348854600F08AF800480047F4
:20016000E1450008081900200448804704480047FEE7FEE7FEE7FEE7FEE7FEE75F0900089C
:2001800055010008F0B51FB40646002082B005464024019100901BE0019922460F46304652
:2001A00000F054F8049A059B801A994110D310461946224600F03AF8361A8F41019722460F
:2001C00001200021009F00F031F838184D4100902046641E0028DFDC019B009829463246D1
:2001E00007B0F0BD03460B439B0703D009E008C9121F08C0042AFAD203E00B780370401CAD
:20020000491C521EF9D27047D2B201E00270401C491EFBD270470022F6E710B513460A46FC
:2002200004461946FFF7F0FF204610BD10B5202A04DB0146203A9140002010BD914020239C
:200240009C1A0346E3401943904010BD10B5202A04DB0846203AD040002110BD0B46D3408B
:20026000D0402024A21A91400843194610BD00001CB5094800900948019005460126009C84
:2002800005E0E36807CC33430C3C98471034AC42F7D3FFF763FF00005872000878720008A6
:2002A00080B547F28800C0F60000006801F047FFB0B1FFE740F21450C2F20000006838B111
:2002C000FFE740F21450C2F2000000688047FFE747F28800C0F60000006801F026FFFFE7FE
:2002E00080BD80B584B000200390FFE7039880087C2813D8FFE70720019001F096FC7D204F
:20030000029001F036FE019801F08FFC029801F030FEFFE70398401C0390E7E704B080BD29
:2003200080B500F079FC80BD80B586B0059004910392FFE740F22C00C2F20000019001989A
:200340000078532803D0FFE700F066FCFFE7FFE7EFF31080012181F3108800900598049969
:20036000039A00F007F80290009880F31088029806B080BD80B58AB0099008910792089855
:20038000049009981821414340F22C00C2F2000040181830039003984069029040B1FFE779
:2003A0000298012819D0FFE7029802282CD032E0039800F083FC059005980799884203D25E
:2003C000FFE70020069007E00798069003980499079A00F0FFFEFFE720E0039800F06EFCC4
:2003E000059005980799884203D2FFE70598019002E007980190FFE7019806900398049919
:20040000069A00F0E7FE09E003980499079A00F06FFE069002E000200690FFE706980AB0DC
:2004200080BD000080B5A4B023902291219206A81B9040201C9000201D9023991F911E9091
:20044000FFE72298017820A801702299491C2291007808B9FFE79AE120A80078252800D080
:200460008AE10020179001201A90FFE72298017820A801700078233803900D2840D80399DE
:200480008A0001A08018874600F032B800F038B800F036B800F034B800F032B800F030B8A6
:2004A00000F02EB800F02CB800F01AB800F028B800F006B800F024B800F022B800F008B80C
:2004C00017980121084317902298401C22901AE017980221084317902298401C229012E019
:2004E00017980421084317902298401C22900AE017980821084317902298401C229002E010
:2005000000201A90FFE7FFE71A980028AED1FFE700201690FFE72298017820A80170007876
:20052000302805DBFFE720A800783A2801DBFFE70FE02298401C229016980A21414320A85D
:200540000078401830381690FFE701200028E2D1FFE719A90020087018902298017820A8F8
:20056000017000782E2839D1FFE72298401C2290229800782A280DD1FFE72298401C229074
:2005800019A901200870219A1068011D11600068189022E0FFE72298017820A80170007862
:2005A000302805DBFFE720A800783A2801DBFFE712E019A9012008702298401C22901898F4
:2005C0000A21414320A80078401830381890FFE701200028DFD1FFE7FFE7FFE72298007801
:2005E00020A90870FFE720A800786C2805D0FFE720A80078682808D1FFE72298401C2290EE
:200600002298007820A9087000E004E0FFE701200028E8D1FFE720A800780290252800D1E5
:20062000A0E00298582848D0FFE70298632814D0FFE7029864281ED0FFE70298702800D136
:2006400080E00298732849D0FFE70298752823D0FFE70298782830D089E0219A1068011D02
:20066000116000681A901A9905A8017001781BA800F004FD7CE0219A1068011D1160006873
:200680001A901A99189B1698179A019200901BA80A2200F032FB6BE0219A1068011D1160AF
:2006A00000681A901A99189B1698179A019200901BA80A2200F007FC5AE0219A1068011DD3
:2006C000116000681A901A99189B1698179A019200901BA8102200F0F6FB49E0219A10687D
:2006E000011D116000680490049848B9FFE747F20D20C0F60000049019A900200870FFE7FC
:20070000FFE70498017820A801700499491C0491007808B9FFE714E019A8007820B1FFE70B
:20072000189808B9FFE70CE020A801781BA800F0A5FC1898401E1890FFE71E980028E0D5B2
:20074000FFE715E0219A1068011D116000681A901A9900200190082300931BA8102200F0E3
:20076000B2FB05E01BA8252100F088FC00E0FFE72298401C229005E020A801781BA800F003
:200780007DFCFFE7FFE71E98002800D459E61E9801280EDBFFE71D9830B1FFE723981D9A87
:2007A00006A9FFF7C1FDFFE71D991E9840181E90FFE71E9824B080BD70B588B002AC009432
:2007C0000C46009905460D980C9E4D610C61CA6004A90B8003A9088001F0F0FB02A900203C
:2007E0000880FFE702A8008803A9098888423CDAFFE700990C9800780A69126810700A69C1
:200800001068401C106008690068C96804AA12888918884205D1FFE70099C8680969086078
:20082000FFE700990869006849690968884212D1FFE700994A691068401C1060C96804AA3B
:2008400012888918884205D1FFE70099C86849690860FFE7FFE7FFE700980068401C02A93B
:2008600008800C98401C0C90BCE701F0BBFB08B070BD84B00290019168460280019800689C
:2008800002990968884208D9FFE70198006802990968401A03A9088014E001980068029990
:2008A000096888420AD2FFE7019800680099401802990968401A03A9088003E003A9002000
:2008C0000880FFE703A8008804B07047B0B588B005AC0194044601980C9D846041600260B6
:2008E00004A8038003A900200090087001F066FB009801990C9A10704868006889680968D1
:2009000088421AD0FFE701998868006800780C9A107003AA012010708A681068401C106029
:20092000096804AA12888918884205D1FFE70199086889680860FFE7FFE701F053FB03A8BE
:20094000007808B0B0BD83B002900191009200980299086000980199086003B0704780B53D
:2009600084B041F20001C4F202010868012210430860FFE741F20000C4F202000068800748
:20098000002801D4FFE7F5E741F20400C4F2020000680C210840082847D1FFE7FFE7002098
:2009A0000390FFE703984F2805D8FFE7FFE70398401C0390F6E741F20401C4F2020108683B
:2009C00002900298F0229043029002988022104302900298086000200390FFE703984F28A6
:2009E00005D8FFE7FFE70398401C0390F6E741F20401C4F20201086802900298F022904375
:200A0000029002989022104302900298086000200390FFE703984F2805D8FFE7FFE7039822
:200A2000401C0390F6E7FFE7FFE741F20401C4F20201009108680322904308600A2000F0B2
:200A40007EFC009941F20002C4F2020210684FF6FF73CFF6F26318401060086840F20C02D3
:200A6000C8F6FF021040086008684FF6FF72C7F200721040086041F22C01C4F2020108686D
:200A80000F229043086041F23001C4F2020100200190086041F20801C4F20201086005F062
:200AA00011FF01990120C00603F0FDFE04B080BD80B582B047F2F000C0F6000000680121F6
:200AC00005F0E5FF01900198B8B1FFE741F2F820C2F20000006838B1FFE741F2F820C2F28F
:200AE000000000688047FFE747F2F000C0F600000068012105F0C2FFFFE702B080BD80B5B8
:200B000082B047F2F000C0F600004068012105F0BEFF01900198B8B1FFE741F2F820C2F2D0
:200B20000000406838B1FFE741F2F820C2F2000040688047FFE747F2F000C0F60000406863
:200B4000012105F09BFFFFE702B080BD80B582B045F20000C4F2000040F20501C0F205715B
:200B600006F082F918B3FFE745F20000C4F2000006F0AEF801A9087041F20050C2F2000071
:200B8000406848B1FFE741F20050C2F20000416801A800788847FFE745F20000C4F200002B
:200BA00040F20501C0F2057106F03BF9FFE702B080BD80B582B043F60000C4F2010040F24D
:200BC0000501C0F2057106F04FF918B3FFE743F60000C4F2010006F07BF801A9087041F24A
:200BE0000050C2F20000006848B1FFE741F20050C2F20000016801A800788847FFE743F6FB
:200C00000000C4F2010040F20501C0F2057106F008F9FFE702B080BD80B582B040F22C002C
:200C2000C2F2000001900198A821FFF7F4FA01990320086101994861019847F20421C0F613
:200C400000018161019A40F2E400C2F20000D061019A40F200401062019A00209062019A54
:200C60005062019AD062019A1166019A40F2D401C2F200015166019A102191660199086709
:200C80000199C86601994867BFF35F8F0090FFE700980F280ED8FFE7009A47F23010C0F6C9
:200CA0000000801AC07B01998854FFE70098401C0090EDE7BFF35F8F02B080BD84B0039055
:200CC0000398006902900398C068019002980199884209D8FFE7039881680198C0434018ED
:200CE00002994018009005E002990198C04340180090FFE7009804B07047B0B590B0159C2E
:200D0000149C0F900E910D920C930E98002804D5FFE70E984042099002E00E980990FFE752
:200D200009980A9001200B90FFE70A980D99884209DBFFE70A980D9990FBF1F00A900B9809
:200D4000401C0B90F1E70C980B99884203D9FFE70C980B90FFE7149870B1FFE70E9800284A
:200D600006D4FFE715A800784007002804D5FFE71498401E1490FFE715A8007880070028D8
:200D800003D5FFE70C9878B3FFE715A80078C00750BBFFE7149830B3FFE7FFE714990020CB
:200DA000089069B1FFE70B99149A0120002306939142079001D30698079007980890FFE7DC
:200DC0000898C00770B1FFE71498401E14900F98202100F053F90F98C068002801D5FFE720
:200DE00000E0DBE7FFE7FFE70F98C068002868D4FFE70E98002808D5FFE70E9840420E9015
:200E00000F982D2100F03AF90CE015A800784007002805D5FFE70F982B2100F02FF900E07F
:200E2000FFE7FFE70F98C068002849D4FFE715A800788007002832D5FFE715A80078C0071F
:200E400068BBFFE70C9850BBFFE7149830B3FFE7FFE714990020059069B1FFE70B99149AE5
:200E60000120002303939142049001D30398049004980590FFE70598C00770B1FFE7149800
:200E8000401E14900F98302100F0F8F80F98C068002801D5FFE700E0DBE7FFE7FFE70F98B0
:200EA000C06800280BD4FFE70F980E990D9A0C9B149C159D0195009400F005F8FFE7FFE73C
:200EC000FFE710B0B0BD10B590B0139C129C0F900E910D920C930E98099001200A9008908F
:200EE000FFE709980D99884209D3FFE709980D99B0FBF1F009900898401C0890F1E70C98BD
:200F00000899884203D9FFE70C980890FFE713A80078C007E0BBFFE71298C0B3FFE713A849
:200F200000788007002807D5FFE70C9820B9FFE707A93020087003E007A920200870FFE7BC
:200F4000FFE712990020069069B1FFE70899129A0120002304939142059001D304980590B5
:200F600005980690FFE70698C00778B1FFE71298401E12900F9807A9097800F07FF80F9854
:200F8000C068002801D5FFE700E0DAE7FFE7FFE70F98C06800286FD4FFE7FFE70C98022804
:200FA00004D3FFE70C98401E0C900BE00E980A99B0FBF1F00B900B980D99884201D2FFE7AF
:200FC00005E0FFE70D980A9948430A90E6E7FFE70E980A99B0FBF1F00B900B980A994143EC
:200FE0000E98401A0E900F980B9A47F24111C0F60001895C00F042F80F98C068002801D5E9
:20100000FFE709E00D990A98B0FBF1F00A90FFE70A980028DCD1FFE713A80078C00750B353
:20102000FFE7129830B3FFE7FFE712990020039069B1FFE70899129A01200023019391421B
:20104000029001D30198029002980390FFE70398C00770B1FFE71298401E12900F982021F1
:2010600000F00CF80F98C068002801D5FFE700E0DBE7FFE7FFE7FFE710B010BD80B584B07F
:20108000039002A801700398806801900198401C0399496888420ED8FFE70298039909680F
:2010A000019A88540198401C039988600399C868401CC860FFE7039988684968884215D11D
:2010C000FFE7039A106911689268FFF72DF903998968884205D0FFE703990020C043C8608C
:2010E00003E0039900208860FFE7FFE704B080BD80B58AB00990089107920020059009981C
:20110000C0680390FFE709980069049004980399884206D9FFE704990398C04340180690A0
:2011200008E0099881680398049A801AC04340180690FFE7069809998968039A891A884258
:2011400003D2FFE70698019005E0099880680399401A0190FFE70198069006980799884293
:2011600003D2FFE70698009002E007980090FFE700980690099840680399401802900298F8
:201180000899069AFFF72EF80699059840180590069908984018089006990798401A07906B
:2011A0000699039840180390039809998968884203D1FFE700200390FFE7BFF35F8F039884
:2011C0000999C860FFE7079800289CD1FFE705980AB080BD80B588B00790069105920798E0
:2011E000C0680390079880680399401A029002980599884212D9FFE7079840680399401817
:20120000019001980699059AFEF7ECFFBFF35F8F0398059940180799C8601FE00298049060
:201220000798406803994018019001980699049AFEF7D8FF05980299401A049007984068D3
:20124000019001980699029A8918049AFEF7CAFFBFF35F8F04980799C860FFE708B080BD4D
:2012600081B001466846017000214056002810D4FFE70021684641561F200A4602400120D6
:201280009040490989004EF20012CEF200028850FFE701B0704770B582B0024601A80270AF
:2012A000009100214056002819D4FFE7002401A908570322D34318404EF20042CEF20002E7
:2012C000805809578C07E50EFF24AC40A043009CA401E4B2AC402043194088501DE001A960
:2012E00008780F24204008380322D34318404EF61C52CEF200028058002549578D07EE0E67
:20130000FF25B540A843009DAD01EDB2B54028432140083919408850FFE702B070BDBFF335
:201320004F8F4EF60C51CEF2000140F20400C0F2FA500860BFF34F8FFFE700BFFDE782B088
:20134000019000200090FFE70098019A0A215143884205D2FFE7FFE70098401C0090F3E7A9
:2013600002B0704780B501F0FFFE03F014FA40F21851C2F200010020087001F05FFC80BD6F
:2013800040F21851C2F2000108200870704780B586B005A90020088041F2E820C2F20000F6
:2013A000008804A9088003A901200870FFE703A8007802281DD0FFE701F04CF9014605A8FB
:2013C00000900180018847F24F20C0F6000004F04EFA0098008804A90291098803AA0192A8
:2013E000127801F085F9019A0299107005980880DDE7059841F2E821C2F20001088006B089
:2014000080BD80B540F21850C2F200000078042809D1FFE700F028F840F21851C2F2000148
:201420000020087018E040F21850C2F200000078082809D1FFE7FFF7AAFF40F21851C2F278
:2014400000010020087006E040F21851C2F2000100200870FFE7FFE780BD40F21851C2F2CD
:20146000000104200870704780B582B001A940F220300880694600200880FFE7684600888A
:201480000F281CDCFFE701F056FE024669460888430040F2E440C2F20000C2520988490030
:2014A000415A47F24F20C0F6000004F0E0F903F09CF9FFE70098401C69460880DEE747F2CF
:2014C000AB10C0F6000004F0D2F902B080BD42F20841C4F201010868082210430860FFE77D
:2014E00042F20840C4F2010000680007002801D5FFE7F5E742F20841C4F2010108680422BF
:2015000010430860FFE742F20840C4F2010000684007002801D5FFE7F5E7704783B0024656
:2015200002A80270019100780090012804D0FFE70098022821D041E00198E8B1FFE701988D
:20154000102819D8FFE742F22C41C4F2010108684FF6FF72CFF60F72104008600198000561
:2015600040F20002CFF6F07282180F2000050240086810430860FFE721E00198E8B1FFE7D6
:201580000198042819D8FFE742F23841C4F2010108684FF6FF72CFF6CF72104008600198CD
:2015A000000540F20002CFF6F0728218032000050240086810430860FFE700E0FFE703B03D
:2015C000704781B00090009840F6FF71084042F2C041C4F20101086001B0704781B000908F
:2015E000009850B1FFE742F20841C4F20101086840F60002104308600BE042F20841C4F2B6
:20160000010108684FF2FF72CFF6FF7210400860FFE701B0704780B540F24010FFF7D1FFED
:2016200042F20840C4F201000068C00748B9FFE742F20841C4F201010868012210430860DE
:20164000FFE780BD82B001AA107068460170007800B3FFE701A80078C00750B1FFE742F2D7
:201660000841C4F2010108680122120510430860FFE701A80078800700280AD5FFE742F255
:201680000841C4F20101086848F2000210430860FFE723E001A80078C00760B1FFE742F2E6
:2016A0000841C4F2010108684FF6FF72CFF6EF7210400860FFE701A80078800700280CD58E
:2016C000FFE742F20841C4F20101086847F6FF72CFF6FF7210400860FFE7FFE702B07047AE
:2016E00083B0024602A80270019100780090012804D0FFE70098022810D01FE042F20841B8
:20170000C4F2010108684FF6FF72CFF6F17210400860019A08681043086010E042F20841D8
:20172000C4F20101086848F6FF72CFF6FF7210400860019A08681043086000E0FFE703B0A5
:20174000704781B00090009A42F20041C4F2010108689043086001B0704782B001906946C5
:201760000020087042F20040C4F2010000680199084204D0FFE7694601200870FFE76846C4
:20178000007802B0704710B585B0034604A8037003AB19700292007805281BDCFFE742F285
:2017A0003441C4F201010868019004AB1C780520024662431F249440019AA243019203AACF
:2017C00012781B7858438240019810430190019808603FE004A800780B281DDCFFE742F288
:2017E0003041C4F201010868019004AB1C780520024662431E3A1F249440019AA2430192E8
:2018000003AA12781B7858431E388240019810430190019808601CE042F22C41C4F2010178
:201820000868019004AB1C780520024662433C3A1F249440019AA243019203AA12781B78E8
:2018400058433C38824001981043019001980860FFE7FFE703A8007809281ADCFFE742F209
:201860001041C4F201010868009003AB1C7803200246624307249440009AA2430092029A61
:201880001B78584382400098104300900098086022E003A8007813281CDCFFE742F20C411E
:2018A000C4F201010868009003AB1C780320024662431E3A07249440009AA2430092029A1A
:2018C0001B7858431E3882400098104300900098086000E0FFE7FFE705B010BD42F24C4059
:2018E000C4F20100006880B2704781B00146684601700078C00750B1FFE742F20841C4F2F0
:20190000010108680122920510430860FFE768460078800700280AD5FFE742F20841C4F22D
:20192000010108680122520510430860FFE701B0704780B588B000F0E8FA0020069000F0CD
:2019400011F90120059000F00DF9022000F00AF9032000F007F90420029000F003F90520E2
:20196000039000F0FFF80620079000F0FBF8072000F0F8F80820009000F0F4F8009805997C
:2019800000F028F9079800F050F905F043FB00F007FC0598069A4EF20011019100F0CBF964
:2019A000059844F21751C0F6000105F0B8F80199069A104600F0BFF9069845F2CD71C0F68F
:2019C000000105F0ACF8079800F02FF905F022FB00F0E6FB0699084600F0FCF80599084616
:2019E00000F0F8F80298059900F0F4F80398069900F0F0F8642000F09CFA079800F015F93A
:201A000005F008FB00F0CCFB0699084600F029F8069841F6A371C0F6000100F0A7FB059A48
:201A20000A210491104600F015F9059844F2C751C0F6000105F048F80499059A069800F0F1
:201A400009F9069844F25551C0F6000105F03CF8079800F0EAF805F0DDFA00F0A1FB08B0A9
:201A600080BD80B586B0024605A80290027004AA009211700078410047F28400C0F60000D8
:201A8000405A04F0DDFB40F2006004F0D9FB02980078820047F28000C0F60000805847F272
:201AA0008C01C0F600018B5800220192114601F0B6FA00990298027847F28600C0F6000030
:201AC0008056097802F0D9FE0298027847F29100C0F60000805C47F29001C0F60001895C10
:201AE00004F0F2FD019A02980078810047F28800C0F6000003904058114600F08BFA0299CC
:201B0000039809788900405800F00FFB06B080BD80B582B0014601A801700078820047F2A0
:201B2000A400C0F60000805847F2C801C0F60001895801F05FFA02B080BD80B582B00146F2
:201B400001A801700078820047F20C10C0F60000805847F22011C0F60001895801F04AFA57
:201B600002B080BD80B584B0014603A8009001700078410047F29200C0F60000405A04F052
:201B80005FFB00980078820047F2A400C0F600000190805847F2C801C0F6000102918B582E
:201BA0000121022201F03BFA009A019802991278920080588B580021032201F077FA009AD2
:201BC00001980299127892008058895801F0FAF904B080BD80B582B001AA10706846017076
:201BE000007880B1FFE701A80078820047F2A400C0F60000805847F2C801C0F600018958AE
:201C000001F0E8F90FE001A80078820047F2A400C0F60000805847F2C801C0F6000189585B
:201C200001F0D0F9FFE702B080BD80B582B0014601A801700078820047F2A400C0F60000C0
:201C4000805847F2C801C0F60001895801F0CAF902B080BDB0B58EB00DAB049318700C9158
:201C60000BA8009002700020019003F097FE0099019B0246049807930692027847F2F80080
:201C8000C0F600008056097802F0F7FD04980078410047F2EC00C0F60000405A04F0D0FAC9
:201CA00004980078810047F2F000C0F600000590405804F014FE08A8029004F01FFF019B8D
:201CC0000698079942F21072FEF75CFA019B0299049A04460598641E0C804B808B800C9D7C
:201CE0000A246C43641E0A94CB8012789200805804F069FE0499059809788900405804F07D
:201D0000E5FD049905980978890040580121039104F0B4FE0399049A0598127892008058DE
:201D200004F0A2FE0499059809788900405804F041FE0EB0B0BDB0B58CB00BAC0794207052
:201D40000A9109A90A70227847F21C10C0F600008056097802F091FD2078410047F2081006
:201D6000C0F60000405A04F06BFA2078410047F20410C0F60000405A04F062FA20788300D9
:201D800047F20C10C0F600000390C05847F2FC01C0F600010091C95847F22812C0F60002C3
:201DA0000192D25801F0AEF80099039822789300C058C95847F22012C0F600020492D25852
:201DC00001F0A0F8019903982278920080588B58022102910122059201F021F901990398AE
:201DE000059A23789B00C058CB580021069101F05DF902990398049B059A2578AD0040597D
:201E00005B5901F00CF90398049B059A06992478A40000591B5901F049F9079800788100C8
:201E200047F21410C0F600000890405804F065FF0699079A089812789200805805F091F8B5
:201E40000699079A089812789200805805F063F80699079A089812789200805805F035F868
:201E6000079908980978890040580A9904F0B8FE07990898097889004058042105F03CF803
:201E800007990898097889004058082105F05AF80799089809788900405804F079FF079902
:201EA0000898097889004058052104F0A9FF07990898097889004058072104F090FF0CB0D5
:201EC000B0BD80B582B00A46014601A8017069460A700078820047F21410C0F6000080586F
:201EE000097804F0FEFEFFE701A80078810047F21410C0F60000405840F2077104F051FF50
:201F000008B9FFE7F0E702B080BD80B503F03CFD80BD81B000200090FFE700981D2806DC30
:201F2000FFE700BFFFE70098401C0090F5E701B0704783B0029000200190FFE701980299BE
:201F4000884214D2FFE700200090FFE7009843F69721884206D8FFE700BFFFE70098401CA5
:201F60000090F3E7FFE70198401C0190E6E703B0704781B000900099062048430090FFE7D3
:201F80000098411E009148B1FFE700BF00BF00BF00BF00BF00BF00BF00BFF1E701B07047A2
:201FA000704780B500F02AF80620FFF73EFE05F031F800F0F5F801F00BF980BD81B0EFF38B
:201FC00010800090009841F2EC21C2F20001086072B601B0704780B540F60000002103F0DD
:201FE00014FC80BD81B041F2EC20C2F2000000680090009880F3108801B0704747F2000133
:20200000C4F2000108684FF2FC72CFF6FF7210400860704785B0049003A8017002A90A703B
:20202000049B40F20042C4F20102116899431160049B40F20442C4F2010211689943116078
:20204000049B40F20842C4F20102116899431160049B40F20C42C4F2010211689943116048
:202060000078019020B1FFE70198012809D011E0049A40F20041C4F2010108681043086020
:2020800009E0049A40F20441C4F2010108681043086000E0FFE702A800780090032841D8A3
:2020A00000998A0001A080188746C04600F006B800F015B800F024B800F033B8049A40F20F
:2020C0000841C4F20101086810430860049A40F20C41C4F2010108689043086023E0049AB3
:2020E00040F20841C4F20101086890430860049A40F20C41C4F2010108681043086012E010
:20210000049A40F20841C4F20101086810430860049A40F20C41C4F20101086810430860C3
:2021200001E000E0FFE705B0704781B00090009840F21441C4F20101086001B0704782B0F2
:20214000009040F21440C4F2010000680099084204D0FFE701A90120087003E001A90020BD
:202160000870FFE701A8007802B0704782B0024601A8027000910078810040F21450C2F20E
:202180000000405850B9FFE7009801A909788A0040F21451C2F200018850FFE702B07047F8
:2021A00080B500F047FA80BD10B586B005900491039203A80078800730B1FFE70398032192
:2021C0008843001D0290FFE7FFF7F8FE00200090FFE700980299884219D2FFE70499009A18
:2021E0008B18D87800069C78240400195B781B02C018895C401801900598009940180199D3
:2022000000F062F9FFE70098001D0090E1E7FFF7E9FE06B010BD80B584B0039003A8C07841
:202220000007002806D4FFE703980121C90640180390FFE703990020C90E029081B1FFE715
:20224000039940F20002C0F604020120002300939142019001D30098019001980290FFE7A9
:202260000298C00708B9FFE712E003984FF20001CFF6FF710840039000F0E3F800F01CF8A8
:20228000039800F034F800F017F800F027F8FFE704B080BD81B001466846018001881F2033
:2022A0000A46024001209040890942F20002C4F20202885001B0704780B540F20530FFF747
:2022C000E9FF40F20430FFF7E5FF40F20330FFF7E1FF40F20230FFF7DDFF80BD42F21001E3
:2022E000C4F202010868802210430860704780B584B003900120000500F02AF8014602A87C
:202300000170007800BBFFE742F21001C4F20201019108680222009210430860039842F2F3
:202320001402C4F20202106008684022104308600120000500F00CF8009A019902AB18704D
:20234000086890430860FFE702A8007804B080BD80B584B0039002A901200870FFE700F0C3
:2023600024F802A908700398401E0390FFE702A8017800200129019005D1FFE70398411EF8
:2023800088410190FFE70198C0070028E7D1FFE702A80078012804D1FFE702A90520087089
:2023A000FFE702A8007804B080BD81B069460020087042F20C00C4F202000068C00720B1B4
:2023C000FFE769460120087037E042F20C00C4F202000068C006002804D5FFE769460420D8
:2023E000087029E042F20C00C4F2020000684007002804D5FFE76946022008701BE042F256
:202400000C00C4F2020000680007002804D5FFE76946032008700DE042F20C00C4F2020073
:2024200000680004002804D5FFE7694607200870FFE7FFE7FFE7FFE7FFE76846007801B0A6
:20244000704742F21000C4F202000068000600280FD5FFE742F20401C4F2020140F2231012
:20246000C4F26750086048F6AB10CCF6EF500860FFE7704780B586B00590049101200005CD
:20248000FFF766FF014603A801700078C0B9FFE742F21002C4F202020292116801200190E8
:2024A000014311600499059A11600005FFF750FF019A029903AB1870086890430860FFE773
:2024C00003A8007806B080BD80B586B00590049105A8C0780007002806D4FFE705980121BE
:2024E000C90640180590FFE705990020C90E039081B1FFE7059940F20002C0F6040201204B
:20250000002301939142029001D30198029002980390FFE70398C00708B9FFE70CE0FFF7A2
:2025200090FFFFF7C9FE05980499FFF7A3FFFFF7C3FEFFF7D3FEFFE706B080BD87B005AA40
:20254000108004A801704FF6FF70C0F20F0003900020029043F20001C4F2000145F255504B
:202560000860FFE743F20C00C4F200000068012108400290FFE70398411E0391002001908D
:2025800029B1FFE70298411E88410190FFE70198C0070028E6D1FFE7029820B1FFE706A91D
:2025A0000020087042E004A8007843F20401C4F2000108604FF6FF70C0F20F000390FFE7F6
:2025C00043F20C00C4F200000068022108400290FFE70398411E03910020009029B1FFE7BB
:2025E0000298411E88410090FFE70098C0070028E6D1FFE7029820B1FFE706A900200870E7
:2026000014E005A8008840F6FF71084043F20801C4F20001086043F20001C4F200014AF619
:20262000AA20086006A901200870FFE706A8007807B0704743F20001C4F200014AF6AA20AF
:202640000860704743F20001C4F200014CF6CC400860704780B584B00020039002A90880B2
:20266000FFE702A80088F0BBFFE701A900200880FFE701A80088012817DCFFE700F05BFDFE
:20268000024601A90888430003A8C25209884900415A47F24F20C0F6000003F0E8F8FFE72A
:2026A0000198401C01A90880E3E703A908884988884207DDFFE7039803A94988401A694667
:2026C000087006E003A840880399401A69460870FFE768460078002804DCFFE7039802A9CC
:2026E0000880FFE7BDE702A8008804B080BD000080B586B00B4605A9088004A8038003ABD6
:2027000000931A70039A02AB1A700988028847F22E20C0F6000003F0AAF80098007801903A
:20272000042800D9AFE001998A0001A08018874600F008B800F029B800F053B800F064B853
:2027400000F08EB840F6A621C2F200010020087005A8008804A90988491C884204DDFFE790
:2027600002A9012008700CE005A8008804A90988491E884204DAFFE702A903200870FFE795
:20278000FFE71E2002F041F87DE005A8008804A90988491E884210DAFFE740F6A620C2F269
:2027A00000000178491C01700078022804DBFFE702A902200870FFE70FE005A8008804A967
:2027C0000988491C884207DDFFE740F6A621C2F2000100200870FFE7FFE71E2002F015F81C
:2027E00051E005A8008804A90988491E88420ADAFFE740F6A621C2F200010020087002A945
:2028000003200870FFE73EE005A8008804A90988491C884210DDFFE740F6A620C2F20000F4
:202820000178491C01700078022804DBFFE702A904200870FFE70FE005A8008804A9098853
:20284000491E884207DAFFE740F6A621C2F2000100200870FFE7FFE71E2001F0D6FF12E074
:2028600005A8008804A90988491C88420ADDFFE740F6A621C2F200010020087002A90120D3
:202880000870FFE7FFE702A8007806B080BD80B582B040F22200C2F20000008800284FD0A1
:2028A000FFE740F22200C2F2000000210091018040F24060C2F20000C38840F22E62C2F2B0
:2028C0000002D38083889380438853800088108040F21C60C2F20000018040F66620C2F27C
:2028E0000000018040F24860C2F20000018040F66A20C2F20000018040F6A220C2F20000A7
:20290000018040F6A420C2F2000001800820FFF761F940F21A60C2F200000088022808D1A4
:20292000FFE740F22861C2F200014FF6FF700880FFE740F20201C2F2000102200880FFE7A5
:2029400040F66421C2F200010020088040F66A20C2F200000088A0B9FFE740F6A422C2F274
:2029600000021088411C1180022806DCFFE702F092FF01A90A20088084E001A90020088048
:2029800080E00120FFF7D9F890BBFFE740F24861C2F200010020088040F24062C2F20002FC
:2029A000108840F22E61C2F200010B88C31A3C205843528880184988401A3C2814DBFFE7CC
:2029C00040F24060C2F20000C28840F22E61C2F20001CA8082888A8042884A8000880880AF
:2029E00001A90B2008804DE001A90A20088049E040F22A61C2F200010878012210430870E8
:202A000040F24860C2F200000188491C01800088032833DBFFE740F24861C2F20001002062
:202A2000088040F6A221C2F200010888401C088040F21A60C2F20000008802280CD1FFE717
:202A400040F6A220C2F2000000880B2804DBFFE701A90C20088015E040F24861C2F2000167
:202A60000020088040F66A21C2F20001088040F6A421C2F200010880FFE7FFE701A90A20D8
:202A80000880FFE701A8008802B080BD80B582B040F22200C2F20000008800B98AE040F25C
:202AA0002201C2F200010020088040F21C61C2F20001088040F6A421C2F20001088040F240
:202AC0004060C2F20000C28840F22E61C2F20001CA8082888A8042884A800088088040F2AE
:202AE0001A60C2F20000008800284AD1FFE740F20201C2F200010220088040F22A61C2F2F2
:202B000000010878FE221040087040F20001C2F2000100200090088040F20401C2F2000140
:202B20004FF6FF70088040F6B020C2F20000011D02460832FDF707FF009840F67821C2F2EA
:202B400000010880FFE740F67820C2F2000000880F2815DCFFE740F20800C2F20000016897
:202B600040F67820C2F200000288FF208854FFE740F67821C2F200010888401C0880E2E7A7
:202B800017E040F21A60C2F20000008803280FD1FFE740F20201C2F200010720088040F29A
:202BA0002A61C2F200010878012210430870FFE7FFE7FFE740F6A422C2F200021088411C0E
:202BC000118040F20201C2F200010988884228DBFFE740F66420C2F200000021018040F6F0
:202BE000A420C2F2000001800820FEF7F3FFFFF790F90120FEF7A1FF014640F67820C2F2CF
:202C000000000180008820B9FFE701A95520088010E008200121FEF7DDFF01A900200880E8
:202C200008E008200121FEF7D5FFFFE701A90A200880FFE701A8008802B080BD80B586B0E6
:202C400005A90020088041F2E821C2F20001098804AA118003A90870FFE76420FFF769F977
:202C6000FFF7F8FC014605A80180008804A90191098803AA02921278FFF73AFD019A0146C3
:202C80000298017005991180007802281DD1FFE740F6A820C2F200000088B0B9FFE705985E
:202CA00040F6A821C2F20001088005A8018847F22120C0F6000002F0DAFD40F6A721C2F2F7
:202CC00000010878401C0870FFE703A8007804281DD1FFE740F6AA20C2F200000088B0B9F1
:202CE000FFE7059840F6AA21C2F20001088005A8018847F21420C0F6000002F0B8FD40F6DD
:202D0000A721C2F200010878401C0870FFE740F6A720C2F200000078022801D1FFE700E011
:202D20009BE7059841F2E821C2F20001088006B080BD82B000900098FC2806D1FFE744F693
:202D4000D520C0F60000019005E044F64D20C0F600000190FFE7019802B0704780B586B011
:202D6000049003910399552008700399AA2048700399002088700498007B0399C870049849
:202D800000780399087104984078039948710498C07803998871049840880399C8710498BF
:202DA000407903990872049880880399487203980221082200F082F80399887203980B308C
:202DC00002900498007B30B3FFE70298049A9168127BFDF707FA049988680A7B002100F0AB
:202DE0006DF8014601A801804078039A0499097B8918C8720198039A0499097B8918087339
:202E000003990498007B4118962048730498007B0E30059008E003990498007B41189620A1
:202E2000C8720C200590FFE7059806B080BD82B000904FF60150C0F60000007800024FF654
:202E40000051C0F600010978411840F67820C2F20000018000884FF6FF7188420ED0FFE7C2
:202E60000098808840F67821C2F200010988884204D1FFE701A9012008801BE040F2040094
:202E8000C2F2000000884FF6FF7188420ED0FFE70098808840F20401C2F2000109888842CC
:202EA00004D1FFE701A90220088003E001A900200880FFE701A8008802B0704785B0049085
:202EC00003A8018002A8028001A9002008800090FFE7009802A9098888420FDAFFE70498C9
:202EE000009903AA12888918415C0198401801A90880FFE70098401C0090EAE701A8008825
:202F000005B0704786B00590049103920598006A01900598406A009002A900200880FFE7A8
:202F200002A8008807281DD8FFE702A801880398C840C00780B1FFE702A8018889000F22B4
:202F40008A400199914301910499008880008140019808430190FFE7FFE70298401C02A95F
:202F60000880DDE702A908200880FFE702A800880F281FD8FFE702A801880398C840C007E1
:202F800090B1FFE702A80188890020390F228A40009991430091049900888000203881403E
:202FA000009808430090FFE7FFE70298401C02A90880DBE701980599086200980599486266
:202FC00006B0704782B00190009100980199886202B0704782B0019000910098019988613C
:202FE00002B0704782B00190009100980199C86202B0704783B0019000910198006900995F
:20300000084204D0FFE702A90120087003E002A900200870FFE702A8007803B0704787B099
:2030200006900591049203930698006801900698C068009002A900200880FFE702A80088E0
:203040000F282BD8FFE702A801880398C840C007F0B1FFE702A801884900032213468B4067
:20306000019999430191059B018849008B40019919430191018849008A40009991430091E9
:203080000499008840008140009808430090FFE7FFE70298401C02A90880CFE701980699B4
:2030A000086000980699C86007B0704710B586B0059004A80170039202930078012806D18C
:2030C000FFE7029A059948681043486005E0029A0599486890434860FFE7059880680090E0
:2030E00001A900200880FFE701A800880F281DD8FFE701A801880298C840C00780B1FFE7A3
:2031000001A80188490003228A400099914300910399008840008140009808430090FFE7C9
:20312000FFE70198401C01A90880DDE700980599886006B010BD80B582B000200B21012247
:203140000192FEF720FB0198FEF7CFFBFFE70220FEF703FB08B9FFE7F9E70220FEF7F1FAF0
:20316000FEF7BCFB02B080BD80B584B003F029FF40F2135003F064F840F2096003F060F866
:203180000220019002F0B8FB019B40F60000C4F60000032100220292FFF741FF0298FEF7AC
:2031A0001DFA012103910846FEF7B8F9039807214904FEF795FA03990846FEF743FAFEF7A9
:2031C0002AFA0A20FEF7B5FEFEF781F904B080BD80B584B040F66422C2F200021088411CC9
:2031E0001180332817DBFFE7FDF77BF840F66421C2F200010020039008800820029001211D
:203200000191FEF7E7FC0198FEF793FE02980399FEF7E0FCFFE704B080BD000080B584B0DE
:2032200003A9087040F67E21C2F200010888012210430880039840F22801C2F2000108702F
:2032400040F23E60C2F20000008800B11DE240F6AC20C2F2000000780190042800D9C0E14D
:2032600001998A0001A080188746C04600F008B800F032B800F088B800F059B900F0FDB8BD
:2032800040F20851C2F200010020088041F2F021C2F20001088040F22800C2F2000000783F
:2032A000552818D1FFE740F6AC21C2F200010120087040F22800C2F20000007840F208535E
:2032C000C2F200031A88511C198041F20031C2F200018854FFE78BE140F22800C2F200003A
:2032E0000078AA2829D1FFE740F6AC21C2F200010220087040F22800C2F20000007840F29A
:203300000853C2F200031A88511C198041F20031C2F20001885440F24A60C2F200000188E5
:20332000491C0180008838B9FFE740F24A61C2F2000101200880FFE725E040F22800C2F214
:2033400000000078552816D1FFE740F6AC21C2F200010120087040F22800C2F200000078D4
:2033600040F20851C2F200010A8841F20031C2F20001885406E040F6AC21C2F200010020C8
:203380000870FFE7FFE733E140F22800C2F20000017840F20850C2F2000003885A1C02808D
:2033A00041F20032C2F20002D15400880B2856D1FFE741F2F020C2F20000007840F228013B
:2033C000C2F200010978884207D0FFE740F6AC21C2F200010020087040E041F20031C2F2A8
:2033E000000188780002C978411841F2F420C2F200000180008840F20111884207DBFFE756
:2034000040F6AC21C2F200010020087025E041F2F420C2F20000008838B9FFE740F6AC21FA
:20342000C2F200010320087016E040F6AC21C2F200010420087041F2F420C2F2000000886F
:2034400040F20C51C2F20001086041F2F021C2F2000100200880FFE7FFE7FFE70CE040F24F
:203460002800C2F20000027841F2F021C2F20001088880180880FFE7BAE040F22800C2F2BF
:203480000000007840F20853C2F200031A88511C198041F20031C2F20001885440F20C5045
:2034A000C2F200000168491E01600068801C38BBFFE741F2F020C2F20000008840F2085140
:2034C000C2F20001098841F20032C2F200028A18911E09780902521E12788918884207D072
:2034E000FFE740F6AC21C2F200010020087006E040F6AC21C2F2000103200870FFE715E082
:2035000040F20C50C2F20000006800280DD4FFE740F22800C2F20000027841F2F021C2F292
:203520000001088880180880FFE7FFE760E040F22800C2F200000078962807D0FFE740F697
:20354000AC21C2F200010020087049E040F22800C2F20000017840F20853C2F200031A88BB
:20356000501C188041F20030C2F200000090815440F6AC22C2F2000205211170017940F6BA
:203580008022C2F2000211704179517081790902C379C9185180017A0902437AC9189180AF
:2035A000807878B9FFE741F20030C2F20000C07840B9FFE740F68021C2F2000100200873A7
:2035C00088600CE041F20030C2F20000C27840F68021C2F200010A730B308860FFE7FFE7CE
:2035E00006E040F6AC21C2F2000100200870FFE703A8017847F2AD10C0F6000002F037F9BD
:2036000040F6AC20C2F20000007805283CD1FFE747F29A10C0F6000002F029F940F6AC21AC
:20362000C2F200010020087040F20400C2F2000000884FF6FF71884213D1FFE740F68020AC
:20364000C2F200004078FC280BD1FFE740F68020C2F20000408840F20401C2F20001088052
:20366000FFE740F22A61C2F20001087801221043087040F68020C2F200004078FFF759FBF8
:20368000029002988047FFE716E040F23E60C2F20000008802280ED1FFE740F22800C2F252
:2036A0000000017840F21950C2F200000170012102F0D2FFFFE7FFE70620FEF7B6FA03F062
:2036C000A9FCFEF76DFD04B080BD000080B584B040F67A21C2F200010888401C088040F260
:2036E0004060C2F20000C1880A31C180C08840F2E83188424FDBFFE740F24062C2F20002BA
:203700000021D1809088401C908040F66620C2F200000288521E0280405E002807D5FFE73F
:2037200040F66621C2F2000100200880FFE740F66820C2F200000188491E01800021405EE7
:20374000002807D5FFE740F66821C2F2000100200880FFE740F24060C2F2000080883C288B
:2037600018DBFFE740F24060C2F20000002181804188491C418040883C280ADBFFE740F2B0
:203780004061C2F20001002048800888401C0880FFE7FFE7FFE740F24060C2F20000C088F7
:2037A0006E2834D1FFE740F6AC20C2F20000007828B3FFE740F24A60C2F20000008840F24F
:2037C0004E61C2F20001098888420BD0FFE740F24A60C2F20000008840F24E61C2F20001BB
:2037E00008800BE040F6AC21C2F200010020087040F24E61C2F200010880FFE706E040F2EA
:203800004E61C2F2000100200880FFE72EE140F24060C2F20000C088782834D1FFE740F618
:20382000AD20C2F20000007828B3FFE740F24C60C2F20000008840F25061C2F2000109888B
:2038400088420BD0FFE740F24C60C2F20000008840F25061C2F2000108800BE040F6AD21B4
:20386000C2F200010020087040F25061C2F200010880FFE706E040F25061C2F20001002057
:203880000880FFE7F1E040F22C60C2F20000008800B1E9E040F24060C2F20000C0888228FD
:2038A00000D0E1E0002140F66820C2F20000405E012800DAD8E0002140F66820C2F20000F8
:2038C000405E1B2800DDCFE040F6AC20C2F20000007800B1C7E008200121FEF77BF940F60C
:2038E0007821C2F2000100200880FFE740F67822C2F200021088411C1180052801DCFFE7F0
:20390000F4E740F66420C2F20000002101800820FEF760F9FEF7FDFA0120FEF70EF90146F6
:2039200040F67820C2F200000180008800B992E040F67821C2F2000100200880FFE701209E
:20394000FEF7FBF8A0B1FFE740F67820C2F200000188491C018000883C2808DBFFE740F270
:203960001E61C2F200010888401C088000E0E6E740F21E60C2F20000008803285ADBFFE7C0
:2039800040F21E61C2F2000100200390088040F22A62C2F200021178FE231940117040F25C
:2039A0000001C2F20001088040F20401C2F200014FF6FF70088040F6B020C2F20000011DC9
:2039C00002460832FCF7BFFF039840F67821C2F200010880FFE740F67820C2F2000000881D
:2039E0000F2815DCFFE740F20800C2F20000016840F67820C2F200000288FF208854FFE775
:203A000040F67821C2F200010888401C0880E2E740F66821C2F200010020088040F21A611C
:203A2000C2F20001088040F22201C2F20001012008800FE040F67820C2F2000000883B283A
:203A400007DCFFE740F21E61C2F2000100200880FFE7FFE706E040F21E61C2F20001002057
:203A60000880FFE7FFE7FFE7FFE7FFE740F24060C2F20000C18845F62940CCF28F204843D5
:203A80004BF65001C0F21E5140180321C8414AF61461C0F24711884200D9AAE1002140F6AA
:203AA0006820C2F20000405E002800DD9FE140F21E61C2F200010020088040F66821C2F226
:203AC0000001088040F21A60C2F2000000880290032800D97DE102998A0001A08018874656
:203AE00000F006B800F043B800F085B800F0D7B8FEF7CCFF014640F67820C2F20000018077
:203B0000008855281DD1FFE740F21A61C2F20001012001900880FDF733FC019A40F222001E
:203B2000C2F20000028040F22A61C2F2000108781043087040F22861C2F20001002008807A
:203B400014E040F67820C2F20000008808B9FFE70BE040F67820C2F2000000880A2802D1C6
:203B6000FFE700BF00E0FFE7FFE7FFE73EE140F22860C2F2000000884FF6FF7188420DD19C
:203B8000FFE740F21A61C2F200010220088040F22201C2F20001012008802BE0FEF777FE0B
:203BA000014640F67820C2F20000018000880B2807D1FFE740F22201C2F20001012008808F
:203BC00017E040F67820C2F2000000880A2802D1FFE700BF0CE040F21A61C2F200010020CC
:203BE000088040F22201C2F2000101200880FFE7FFE7FFE7FAE0FEF74AFE014640F67820AC
:203C0000C2F20000018000880B2808D0FFE740F67820C2F2000000880C280DD1FFE740F2C2
:203C20001A61C2F200010320088040F22201C2F200010120088031E040F67820C2F2000063
:203C400000880A2814D1FFE740F22860C2F20000008860B9FFE740F21A61C2F20001012067
:203C6000088040F22201C2F200010880FFE714E040F67820C2F20000008868B9FFE740F20D
:203C80001A61C2F200010020088040F22201C2F2000101200880FFE7FFE7FFE7A6E0FEF76C
:203CA000F5FE014640F67820C2F200000180008855280DD1FFE740F22A62C2F20002107802
:203CC0000121084310700820FDF784FF00BF7FE040F67820C2F20000008800284ED1FFE703
:203CE00040F22A61C2F200010878FE221040087040F20001C2F200010020088040F2040222
:203D0000C2F200024FF6FF71118040F67821C2F200010880FFE740F67820C2F200000088AB
:203D20000F2815DCFFE740F20800C2F20000016840F67820C2F200000288FF208854FFE731
:203D400040F67821C2F200010888401C0880E2E740F21A61C2F200010020088040F2220143
:203D6000C2F200010120088040F6B020C2F20000011D02460832FCF7E6FD28E040F67820DF
:203D8000C2F2000000880A281FD1FFE700BF40F24060C2F20000008840F22E61C2F200019C
:203DA0000988401A182190FBF1F007280CDBFFE740F21A61C2F200010120088040F2220117
:203DC000C2F200010880FFE700E0FFE7FFE7FFE70CE040F21A61C2F200010020088040F206
:203DE0002201C2F2000101200880FFE700E0FFE7FFE740F24060C2F20000C28840F2366117
:203E0000C2F20001CA8082888A8042884A800088088004B080BD80B58EB040F67C20C2F201
:203E200000000188491C0180018845F62940CCF28F2048434BF65001C0F21E5140180122C0
:203E4000D041884200D9CCE040F20000C2F200000088002847D0FFE740F20000C2F2000089
:203E60000088800600281AD5FFE700210D910846FDF7B0FE0D990120FDF7ACFE0D9902205B
:203E8000FDF7A8FE0D990320FDF7A4FE0D990420FDF7A0FE0D990520FDF79CFE1AE000205A
:203EA0000C9001210B91FDF795FE0B980C99FDF791FE0B990220FDF78DFE0C990320FDF755
:203EC00089FE0B990420FDF785FE0C990520FDF781FEFFE740F20001C2F20001088820223F
:203EE000504008807CE000210846FDF773FE01210A910846FDF76EFE0A9A40F67E21C2F2E2
:203F0000000108889043088040F22A60C2F20000007802210840012811DBFFE70420012121
:203F2000FDF758FE05200021FDF754FE40F22A61C2F200010878FD221040087009E00420C5
:203F400000210991FDF746FE09990520FDF742FEFFE740F22A60C2F200000078C007A0B38B
:203F6000FFE740F22860C2F2000000884FF6FF71884215D1FFE70220069000210591FDF7B7
:203F800029FE059903200790FDF724FE069801210891FDF71FFE07980899FDF71BFE13E0E2
:203FA0000220029000210491FDF714FE049903200390FDF70FFE02980121FDF70BFE0398E9
:203FC0000499FDF707FEFFE709E0022000210191FDF700FE01990320FDF7FCFDFFE7FFE73F
:203FE000FFE740F22600C2F2000000884FF6FF71884228D0FFE740F22601C2F2000108884C
:20400000401E08800004E8B9FFE740F69020C2F2000040F21951C2F200010091FEF79EFE22
:204020000246009840F67821C2F200010A80098802F0DAFA40F22601C2F200014FF6FF7079
:204040000880FFE7FFE70EB080BD000080B584B003A90870039840F22901C2F20001087060
:2040600040F6AD20C2F2000000780290042800D9BFE102998A0001A08018874600F008B8FF
:2040800000F032B800F088B800F059B900F0FDB840F20A51C2F200010020088041F2F2213F
:2040A000C2F20001088040F22900C2F200000078552818D1FFE740F6AD21C2F20001012016
:2040C000087040F22900C2F20000007840F20A53C2F200031A88511C198041F20041C2F2CB
:2040E00000018854FFE78BE140F22900C2F200000078AA2829D1FFE740F6AD21C2F200019F
:204100000220087040F22900C2F20000007840F20A53C2F200031A88511C198041F200411C
:20412000C2F20001885440F24C60C2F200000188491C0180008838B9FFE740F24C61C2F2FB
:20414000000101200880FFE725E040F22900C2F200000078552816D1FFE740F6AD21C2F241
:2041600000010120087040F22900C2F20000007840F20A51C2F200010A8841F20041C2F222
:204180000001885406E040F6AD21C2F2000100200870FFE7FFE733E140F22900C2F200001C
:2041A000017840F20A50C2F2000003885A1C028041F20042C2F20002D15400880B2856D191
:2041C000FFE741F2F220C2F20000007840F22901C2F200010978884207D0FFE740F6AD216B
:2041E000C2F200010020087040E041F20041C2F2000188780002C978411841F2F620C2F290
:2042000000000180008840F20111884207DBFFE740F6AD21C2F200010020087025E041F236
:20422000F620C2F20000008838B9FFE740F6AD21C2F200010320087016E040F6AD21C2F253
:2042400000010420087041F2F620C2F20000008840F21051C2F20001086041F2F221C2F292
:20426000000100200880FFE7FFE7FFE70CE040F22900C2F20000027841F2F221C2F2000173
:20428000088880180880FFE7BAE040F22900C2F20000007840F20A53C2F200031A88511C12
:2042A000198041F20041C2F20001885440F21050C2F200000168491E01600068801C38BBF2
:2042C000FFE741F2F220C2F20000008840F20A51C2F20001098841F20042C2F200028A18D7
:2042E000911E09780902521E12788918884207D0FFE740F6AD21C2F200010020087006E02A
:2043000040F6AD21C2F2000103200870FFE715E040F21050C2F20000006800280DD4FFE7D1
:2043200040F22900C2F20000027841F2F221C2F20001088880180880FFE7FFE760E040F20B
:204340002900C2F200000078962807D0FFE740F6AD21C2F200010020087049E040F22900B8
:20436000C2F20000017840F20A53C2F200031A88501C188041F20040C2F200000190815497
:2043800040F6AD22C2F2000205211170017940F69022C2F2000211704179517081790902A2
:2043A000C379C9185180017A0902437AC9189180807878B9FFE741F20040C2F20000C0786C
:2043C00040B9FFE740F69021C2F200010020087388600CE041F20040C2F20000C27840F65C
:2043E0009021C2F200010A730B308860FFE7FFE706E040F6AD21C2F2000100200870FFE7CE
:2044000003A8017847F2AD10C0F6000001F02FFA40F23E60C2F200000088009020B3FFE75D
:204420000098012804D0FFE7009802280ED052E040F22900C2F20000017840F21950C2F258
:2044400000000170012102F007F945E040F22900C2F20000017840F21950C2F2000001706A
:20446000012102F0C1F837E040F6AD20C2F20000007805282ED1FFE747F28810C0F6000090
:2044800001F0F5F940F6AD21C2F200010020087040F69020C2F200004078810040F2646023
:2044A000C2F20000405868B1FFE740F69020C2F200004078810040F26460C2F2000040589C
:2044C000804706E040F22460C2F2000000688047FFE7FFE700E0FFE70620FDF7A6FB02F057
:2044E00099FDFDF75DFE04B080BD40F24060C2F200000021018041808180C180C28840F23F
:204500003661C2F20001CA8082888A8042884A8000880880704780B584B003A90291087076
:20452000FDF76CFD0620FDF780FB02F073FDFDF737FE029801210191009040F6B020C2F266
:204540000000011D0246083240F20123FCF734F904B080BD80B5FDF751FD40F20451C2F2A2
:2045600000010868401C08600620FDF75EFB02F051FDFDF715FEFFF7A9F880BD80B584B00F
:2045800040F2115001F05CFE0920C00602900122009241F2000303931146FEF740FD009919
:2045A0000298039B00220192FEF780FD019A029840F600031146FEF732FD02980399FEF788
:2045C00009FD04B080BD80B5FDF718FD0620FDF72CFB02F01FFDFDF7E3FDFFF71CFC80BD38
:2045E00080B586B00020059040F6B8300421FDF7A5FFFEF727F806200390FDF7B3FA0398B7
:20460000FDF713FB02F006FDFDF7CAFD47F25110C0F6000001F0FFFE40F61C1001F0F3FD67
:2046200038B1FFE747F26D10C0F6000001F01FF9FFE747F26010C0F6000001F018F9FDF7FB
:20464000BDFCFFF752FF01F037FE40F6D060C2F20000011D02460832FCF775F940F6B02013
:20466000C2F20000011D02460832FCF76CF9FDF760F901F005FFFDF7B5FCFCF773FEFFF74D
:204680007DFF0620FDF7D1FA02F0C4FCFDF788FDFFE7FCF7B6FE01F007FF40F20450C2F2D0
:2046A0000000016845F62940CCF28F2048430221C84145F62841C0F28F21884201D8FFE73A
:2046C000FFE740F6D060C2F20000011D40F20122FCF7CFF800280CDCFFE740F6B020C2F2FD
:2046E0000000011D40F20122FCF7C3F8012846DBFFE70620FDF799FA02F08CFCFDF750FD01
:2047000040F6D060C2F20000011D40F20122FCF7B0F8012813DBFFE704A80290009040F670
:20472000D060C2F20000011D0246083240F20123FCF7CCF802980078FFF788FCFFE740F640
:20474000B020C2F20000011D40F20122FCF791F8012813DBFFE704A80190009040F6B02016
:20476000C2F20000011D0246083240F20123FCF7ADF801980078FEF751FDFFE702E0FDF7E7
:204780002AFCFFE785E782B001200190019880F31088FCF7C4FD80B586B040F2135001F074
:2047A0004FFD40F60000C4F600000290012104910022039204230193FEF731FC019B0298AA
:2047C0000399049AFEF772FC0298039A049908230593FEF724FC02980399049A059BFEF727
:2047E00065FC00F002F806B080BD80B582B040F60000C4F6000001900421FEF7EBFB0198FA
:204800000821FEF7E7FB02B080BD80B584B003A9088040F60000C4F600000421FEF7DAFB2D
:2048200002A900200880FFE702A8008803A9098888421BDAFFE740F60000C4F600000090AB
:2048400008210191FEF7BEFB40F2BC20FDF791FB00980199FEF7BEFB40F22C10FDF789FB9B
:20486000FFE70298401C02A90880DDE7FFF7BDFF0520FDF75EFB04B080BD80B584B00A4697
:20488000014603A80190017002A90A700022009280560978FCF7FFFC009901984056FCF74B
:2048A000DFFC04B080BD82B001900091019800994FF68072C1F6FF72114008434EF608510E
:2048C000CEF200010860BFF34F8F02B0704780B582B040F69020C2F20000FEF7A8FA0146D7
:2048E00040F67820C2F2000001800088012833D1FFE740F25460C2F20000009001786022F5
:20490000114301700122427040F69021C2F200018B8843804988818041F20041C2F2000190
:20492000F1230B704A7003228A700022CA7081600421017340F21951C2F200010191FEF761
:204940000DFA0246019840F67821C2F200010A80098801F081FE02E000F03FFAFFE702B0BD
:2049600080BD80B584B040F69020C2F20000FEF75EFA014640F67820C2F2000001800088D8
:20498000012861D1FFE740F25461C2F200010878602210430870FC20487040F69020C2F2FF
:2049A000000082884A804088888040F22A60C2F200000178012001405520002202920129B3
:2049C000039001D002980390039840F20C02C2F20002107040F20400C2F2000041785170D1
:2049E0000188917040F22861C2F200014B78D3700988117100884FF6FF71884207D1FFE7DF
:204A000040F20C01C2F2000100200870FFE740F25460C2F2000040F20C01C2F200018160B5
:204A20001521017340F21951C2F200010191FEF795F90246019840F67821C2F200010A8077
:204A4000098801F009FEFFE704B080BD80B582B040F22A61C2F200010878022210430870AE
:204A600040F68020C2F2000040F21951C2F200010191FEF773F90246019840F67821C2F204
:204A800000010A80098801F0E7FD40F66821C2F200011E20088040F67420C2F200000088E5
:204AA000B0B1FFE740F68020C2F20000407878B9FFE7FCF7D2FC40F20001C2F2000101208C
:204AC000088040F67421C2F2000100200880FFE702B080BD80B582B040F67421C2F200016A
:204AE0000020088040F68020C2F20000007B15284DD1FFE740F68020C2F200008168C87815
:204B000000020979411840F67820C2F2000001800088E8B1FFE740F66A21C2F20001012017
:204B2000088040F67820C2F20000018840F295124FF6FF70002300939142019001DC0098C6
:204B40000190019840F22861C2F200010880FFE740F24060C2F20000C28840F66C21C2F206
:204B60000001CA8082888A8042884A800088088040F20800C2F20000006840F68021C2F251
:204B800000018968491D1022FBF72CFBFFE702B080BD10B588B040F69020C2F20000FEF711
:204BA00046F9014640F67820C2F2000001800088012800D0AAE040F69020C2F20000007B4C
:204BC000002851D1FFE740F67821C2F2000100200880FFE740F67820C2F2000000880F2852
:204BE00019DCFFE740F67821C2F2000108884FF60452C0F60002805C0A8841F20041C2F2DD
:204C000000018854FFE740F67821C2F200010888401C0880DEE740F25460C2F200006021F9
:204C20000170F821417040F69021C2F200018A8842804988818041F20041C2F200018160ED
:204C40001021017340F21951C2F200010691FEF785F80246069840F67821C2F200010A8061
:204C6000098801F0F9FC50E040F69020C2F20000007B102836D1FFE74FF60150C0F6000007
:204C8000007800024FF60051C0F600010978401841F2F621C2F20001039108804FF60050C4
:204CA0000490FDF7B8FA039904980988FDF70CFC40F69020C2F20000059081684FF6045044
:204CC0001022FDF771FA0598836842680168C06840F21954C2F2000401940090002001F0F3
:204CE000A4FB11E040F69020C2F20000836842680168C06840F21954C2F2000401940090E8
:204D0000002001F045FCFFE7FFE7FFE708B010BD10B582B040F69020C2F20000FEF787F805
:204D2000014640F67820C2F200000180008801284ED1FFE740F69020C2F200008068007879
:204D4000552814D1FFE7FCF788FB40F69020C2F20000836842680168C06840F21954C2F282
:204D6000000401940090002001F05FFB2FE040F69020C2F2000080680078AA2814D1FFE7F9
:204D8000FCF7FEFA40F69020C2F20000836842680168C06840F21954C2F2000401940090EC
:204DA000002001F042FB11E040F69020C2F20000836842680168C06840F21954C2F200049D
:204DC00001940090002001F0E3FBFFE7FFE702E000F003F8FFE702B010BD80B584B040F622
:204DE0009020C2F20000818841F2F620C2F200000180008840F20401C2F2000109888842F9
:204E000014D0FFE741F2F620C2F2000000884FF60151C0F60001097809024FF60052C0F61C
:204E2000000212788918884267D1FFE70820FCF76FFE58B1FFE708200021FCF7CBFE40F2AF
:204E40002601C2F20001322008804FE040F22600C2F2000000884FF6FF71884245D1FFE75E
:204E600040F69020C2F20000029040F21951C2F200010191FDF772FF0246019840F678210E
:204E8000C2F200010A80098801F0AEFB0298407803900A2820D0FFE703980E2804D0FFE730
:204EA0000398122811D01EE040F69020C2F2000000788006002807D5FFE740F67421C2F23D
:204EC000000101200880FFE70EE040F20001C2F200010020088007E040F22C61C2F2000169
:204EE0000120088000E0FFE7FFE7FFE740F66821C2F200011E200880FFE704B080BD10B5A1
:204F000082B040F22A60C2F200000078C007B0B1FFE74FF60050FDF77EF940F69020C2F2CF
:204F20000000836842680168C06840F21954C2F2000401940090002001F077FAFFE702B0B5
:204F400010BD10B584B040F22A60C2F200000078C007002873D0FFE740F69020C2F20000F1
:204F6000007B02286BD1FFE740F69020C2F200008168087800024978411841F2F620C2F24E
:204F8000000001800088012858DBFFE741F2F620C2F200000088FF2850DCFFE740F6782139
:204FA000C2F2000100200880FFE740F67820C2F2000000880F2819DCFFE740F67821C2F20F
:204FC000000108884FF60452C0F60002805C0A8841F20041C2F200018854FFE740F67821C5
:204FE000C2F200010888401C0880DEE74FF600500290FDF710F9029841F2F621C2F2000106
:205000000988FDF761FA41F20041C2F200014FF604501022FDF7C8F840F69020C2F200006E
:20502000836842680168C06840F21954C2F2000401940090002001F0F8F9FFE7FFE704B04C
:2050400010BD80B582B040F22A60C2F200000078C007002843D0FFE740F69020C2F20000B2
:20506000007B02283BD1FFE740F69020C2F200008168087800024978411840F67820C2F2F8
:20508000000001800088FF2828DDFFE740F67820C2F2000000884FF6FE7188421EDCFFE78D
:2050A00040F67820C2F200000090008840F20401C2F20001088040F69020C2F2000040F216
:2050C0001951C2F200010191FDF748FE0099024601980A80098801F087FAFFE7FFE702B060
:2050E00080BD80B584B040F22A60C2F200000078C00750B3FFE740F69020C2F20000007B5D
:20510000102822D1FFE740F69020C2F20000019040F21951C2F200010391FDF71FFE0199C3
:2051200040F67822C2F200020292108040F20800C2F20000006889681022FBF753F8029974
:205140000398098801F050FAFFE704B080BD80B540F69020C2F20000FDF769FE014640F66A
:205160007820C2F2000001800088012816D1FFE740F69020C2F20000007B01280ED1FFE7E1
:2051800040F69020C2F200008068007840F23E61C2F20001088001F08FF8FFE780BDB0B507
:2051A00082B040F69020C2F20000FDF740FE014640F67820C2F200000180008802281CD108
:2051C000FFE740F22C61C2F200010020088040F66821C2F20001088040F69024C2F200042F
:2051E000A36862682168E46840F21955C2F200050195009401F019F9FFE702B0B0BDB0B515
:2052000084B040F69020C2F20000FDF710FE014640F67820C2F2000001800088012800D0F3
:20522000ABE040F69020C2F20000007B012815D1FFE740F69020C2F200008068007840F6A9
:205240007721C2F200010870D0B1FFE740F67720C2F200000078FF2812D0FFE740F6902054
:20526000C2F20000836842680168C06840F21954C2F2000401940090002001F089F97BE0EA
:2052800040F67720C2F20000007848BBFFE747F2C310C0F6000000F0EAFA40F6A021C2F2EB
:2052A00000010220088040F22401C2F200010420088040F22061C2F200010020088040F645
:2052C0009024C2F20004A36862682168E46840F21955C2F200050195009401F0A6F84AE07C
:2052E00047F2B310C0F6000000F0C1FA40F6A020C2F200000088042825D1FFE740F6902031
:20530000C2F20000836842680168C06840F21954C2F20004019400900020039001F085F816
:20532000039840F6A021C2F20001088040F22401C2F200014FF6FF7008800120FCF7F9FD4C
:20534000FFF721FA16E040F6A021C2F200010020088040F69024C2F20004A36862682168F2
:20536000E46840F21955C2F200050195009401F00FF9FFE7FFE7FFE7FFE704B0B0BDB0B547
:2053800084B040F69020C2F20000FDF750FD014640F67820C2F200000180008801285AD1D8
:2053A000FFE740F6A020C2F20000008803283AD1FFE740F69020C2F20000007860210840DE
:2053C000402807D1FFE740F22401C2F2000100200880FFE7FCF7F2FD01F030FEFCF702FE19
:2053E00040F69020C2F20000007860210840202807D1FFE740F6A021C2F200010420088074
:20540000FFE740F69020C2F20000836842680168C06840F21954C2F200040194009000204A
:2054200001F003F816E040F6A021C2F200010020088040F69024C2F20004A3686268216836
:20544000E46840F21955C2F200050195009401F09FF8FFE702E0FFF7C0FCFFE704B0B0BD74
:20546000B0B58AB040F69020C2F20000FDF7DFFC014640F67820C2F2000001800088012829
:2054800000D0A1E140F69020C2F2000000781F21084040F67721C2F20001087040F6A0202F
:2054A000C2F200000088022817D1FFE740F22400C2F2000000884FF6FF7188420DD0FFE7E4
:2054C00040F22060C2F20000008840F67621C2F20001097888421CDAFFE740F6A021C2F28A
:2054E00000010020088040F22061C2F20001088040F69024C2F20004A36862682168E468C7
:2055000040F21955C2F200050195009401F040F859E140F22060C2F20000008840F67721E9
:20552000C2F200010978884200D01CE140F22060C2F200000188491C01800088202807D121
:20554000FFE740F22061C2F2000100200880FFE740F69020C2F20000007B40F6FF7140185C
:20556000000B06A9087009A900200880FFE709A8008806A90978884210DAFFE709A800887D
:20558000000344F20001C0F601014018FCF743FEFFE70998401C09A90880E8E7FCF70EFDA3
:2055A00009A900200880FFE709A8008840F69021C2F20001097B884200DBCDE00620FCF7E7
:2055C00034FB01F027FDFCF7EBFD0020089040F6CC60C2F200000078002850D0FFE707A988
:2055E00000200870FFE707A80078032834DCFFE740F6CC60C2F200000078A0B1FFE707A871
:20560000007840F6C861C2F20001095CC000814008984018089040F6CC61C2F200010878F0
:20562000401E087012E040F69020C2F20000806809A90A88825C07A80078C00082400898B5
:20564000801808900998401C0880FFE7FFE70798401C07A90870C6E740F22400C2F20000EF
:205660000590008844F20001C0F6010140180899FCF72AFF05990888001D08806BE009A83A
:205680000088001D40F69021C2F20001097B88420ADDFFE740F69020C2F20000007860211B
:2056A000084020282BD1FFE740F69020C2F20000816809A8049002888B18D87800069C7819
:2056C000240400195B781B02C018895C4018089040F22400C2F200000390008844F2000190
:2056E000C0F6010140180899FCF7EEFE039A04991088001D10800998001D08802AE040F615
:20570000CC61C2F2000100200870FFE709A8008840F69021C2F20001097B884219DAFFE72D
:2057200040F69020C2F20000806809AA1188405C40F6CC61C2F200010C7840F6C863C2F24E
:20574000000318550998401C10800878401C0870DCE7FFE7FFE727E740F6CC61C2F2000143
:2057600000200870FFE740F69020C2F20000007860210840202812D1FFE740F22400C2F2B5
:205780000000018844F20000C0F60100FCF79CFE40F6A021C2F2000103200880FFE7FCF7D6
:2057A00021FC40F69020C2F20000836842680168C06840F21954C2F2000401940090002070
:2057C00000F033FEFFE7FFE70AB0B0BD80B584B003A902910870FCF711FC0620FCF725FA5D
:2057E00001F018FCFCF7DCFC029801210191009040F6D060C2F20000011D0246083240F20F
:205800000123FAF7D9FF04B080BD82B00190684601704EF61051CEF20001086804229043F9
:20582000086047F20001C4F2000108684FF2FC72CFF6FF7210400860019840F60001884268
:205840000AD1FFE747F20001C4F20001086840F6000210430860FFE76846007810B9FFE778
:2058600030BF02E020BF20BFFFE702B0704783B080B583B0079306920591029005A8019017
:205880000299002001AAFAF7CDFD03B080BC01BC03B08646704780B582B040F25460C2F204
:2058A000000000210170FC2242704FF60152C0F60002127812024FF60053C0F600031B78B4
:2058C000D218428040F20402C2F2000212888280017340F21951C2F200010191FDF73EFA0F
:2058E0000246019840F67821C2F200010A80098800F07AFE02B080BD81B0009041F20401D8
:20590000C4F20201086843F6FF72CFF6FF721040086041F23001C4F2020108684FF6FF6293
:20592000C3F6FF721040086000980F281AD8FFE700988007020C41F20401C4F20201086850
:205940001043086000988008820741F23001C4F20201086810430860086840F20012104394
:205960000860FFE7009810280CD1FFE741F23001C4F2020108684FF6FF62CFF6FF7210408D
:205980000860FFE701B0704741F22401C4F2020108680122120610430860704700B5A3B01B
:2059A00022A9087000200290219020901F901E901D901C901B901A901990189017901690E8
:2059C0001590149013901290119010900F900E9040F20671C0F608110D9140F20121C0F29F
:2059E00003410C910B900A9009910890079106900591049041F20400C4F2020000680C2183
:205A000008408008209041F22C00C4F202000068012149040840C00B1F9020981F9908439B
:205A2000219021980390042800D99DE003998A0001A080188746C04600F008B800F00CB851
:205A400000F01AB800F00EB800F012B842F20040C0F2F4001B908DE041F20020C0F27A0063
:205A60001B9087E046F60040C0F2DC201B9081E047F600501B907DE041F20400C4F202005A
:205A800001683F2292041140890C139100680121C9060840C00E12901298800113994018DC
:205AA000139013980F2804D3FFE71398401C13900BE013980F2803D1FFE71020139003E0BD
:205AC0001398801C1390FFE7FFE741F20400C4F202000068032109040840000C11901198EA
:205AE000A0B9FFE741F22C00C4F2020000680F210840401C1090109942F20040C0F2F400B1
:205B0000B0FBF1F1139848431B902CE01198012814D1FFE741F22C00C4F2020000680F21BF
:205B20000840401C1090109941F20020C0F27A00B0FBF1F1139848431B9013E041F22C0039
:205B4000C4F2020000680F210840401C1090109946F60040C0F2DC20B0FBF1F1139848431B
:205B60001B90FFE7FFE705E042F20040C0F2F4001B90FFE741F20400C4F202000168C9B24B
:205B800009090F910F9A0AA9895C0E911B990E9AD1401A91016840F200721140090A0F914A
:205BA0000F9A08A9895C0E911A990E9AD1401991006843F600010840C00A0F900F9906A848
:205BC000405C0E901A980E99C840189022A8007801900B2800D912E301998A0001A0801851
:205BE0008746C04600F016B800F017B800F018B800F019B800F01AB800F0F7B800F042BA87
:205C000000F07FBA00F0BCBA00F03CB900F08FB900F0E2B91B981C90F2E21A981C90EFE2EB
:205C200019981C90ECE218981C90E9E241F23000C4F20200006840F200110840884206D064
:205C4000FFE746F60040C0F2DC201790CAE041F20400C4F20200006880B2800B1E9041F2EE
:205C60003000C4F202000068800F1D901E980090032800D9B4E000998A0001A08018874691
:205C800000F006B800F02EB800F056B800F080B81D9820B9FFE718984008179021E01D9891
:205CA000012806D1FFE718980A21B0FBF1F0179016E01D98022806D1FFE71A980321B0FBDD
:205CC000F1F017900BE01D98032806D1FFE71A980B21B0FBF1F0179000E0FFE7FFE7FFE711
:205CE000FFE77EE01D9820B9FFE718988008179021E01D98012806D1FFE718980C21B0FBE9
:205D0000F1F0179016E01D98022806D1FFE71A980521B0FBF1F017900BE01D98032806D1BC
:205D2000FFE71A980D21B0FBF1F0179000E0FFE7FFE7FFE7FFE754E01D9830B9FFE718988A
:205D40000621B0FBF1F0179021E01D98012806D1FFE718980E21B0FBF1F0179016E01D9890
:205D6000022806D1FFE71A980721B0FBF1F017900BE01D98032806D1FFE71A980F21B0FB1A
:205D8000F1F0179000E0FFE7FFE7FFE7FFE728E01D9820B9FFE71898C00817901FE01D98B4
:205DA000012804D1FFE718980009179016E01D98022806D1FFE71A980921B0FBF1F01790FE
:205DC0000BE01D98032806D1FFE71A981121B0FBF1F0179000E0FFE7FFE7FFE7FFE700E0CC
:205DE000FFE7FFE717981C900AE241F23000C4F202000068800718B9FFE7189816903EE05B
:205E000041F23000C4F20200006803210840012803D1FFE71B98169030E041F23000C4F22E
:205E20000200006803210840022804D1FFE748F20000169021E041F23000C4F20200006843
:205E400003210840032816D1FFE741F23000C4F202000068072189040840800C0F900F998B
:205E600004A8405C0E900E9942F20040C0F2F400C840169000E0FFE7FFE7FFE7FFE71698A7
:205E80001C90BDE141F23000C4F2020000688003800F18B9FFE71998169045E041F230008D
:205EA000C4F20200006803210904084001210904884203D1FFE71B98169034E041F23000C6
:205EC000C4F20200006803210904084001214904884204D1FFE748F20000169022E041F220
:205EE0003000C4F202000068032109040840884216D1FFE741F23000C4F202000068072197
:205F000089040840800C0F900F9904A8405C0E900E9942F20040C0F2F400C840169000E0A4
:205F2000FFE7FFE7FFE7FFE716981C9068E141F23000C4F202000068C004800F18B9FFE799
:205F40001998169045E041F23000C4F20200006841F60001084040F60001884203D1FFE707
:205F60001B98169034E041F23000C4F20200006841F60001084041F20001884204D1FFE7F8
:205F800048F20000169022E041F23000C4F20200006841F600010840884216D1FFE741F252
:205FA0003000C4F202000068072189040840800C0F900F9904A8405C0E900E9942F20040C0
:205FC000C0F2F400C840169000E0FFE7FFE7FFE7FFE716981C9013E141F23000C4F202008C
:205FE00000684005800F18B9FFE71998159046E041F23000C4F20200006840F200610840D4
:2060000040F20021884204D1FFE747F60050159034E041F23000C4F20200006840F200614C
:20602000084040F20041884204D1FFE748F20000159022E041F23000C4F20200006840F28A
:2060400000610840884216D1FFE741F23000C4F202000068072189040840800C0F900F99AD
:2060600004A8405C0E900E9942F20040C0F2F400C840159000E0FFE7FFE7FFE7FFE71598A7
:206080001C90BDE041F23000C4F2020000680007800F18B9FFE7199814902FE041F2300020
:2060A000C4F2020000680C210840042803D1FFE71B98149021E041F23000C4F2020000688A
:2060C0000C210840082816D1FFE741F23000C4F202000068072189040840800C0F900F99FB
:2060E00004A8405C0E900E9942F20040C0F2F400C840149000E0FFE7FFE7FFE714981C9063
:206100007EE041F23000C4F2020000688006800F18B9FFE7199814902FE041F23000C4F255
:206120000200006830210840042803D1FFE71B98149021E041F23000C4F20200006830214A
:206140000840082816D1FFE741F23000C4F202000068072189040840800C0F900F9904A8FB
:20616000405C0E900E9942F20040C0F2F400C840149000E0FFE7FFE7FFE714981C903FE06F
:2061800041F23000C4F2020000680006800F18B9FFE7199814902FE041F23000C4F20200B1
:2061A0000068C0210840042803D1FFE71B98149021E041F23000C4F202000068C021084064
:2061C000082816D1FFE741F23000C4F202000068072189040840800C0F900F9904A8405C27
:2061E0000E900E9942F20040C0F2F400C840149000E0FFE7FFE7FFE714981C9000E0FFE7E4
:206200001C9823B000BD82B0694608800888800941F20002C4F20202805809881F221140CE
:20622000C840C00720B1FFE701A90120087003E001A900200870FFE701A8007802B0704700
:2062400081B001466846018000881F220146114001238B40810941F20002C4F202028858EE
:206260001843885001B0704781B001466846018000881F220146114001238B40810941F2CF
:206280000002C4F2020288589843885001B0704781B001466846018000881F22014611403F
:2062A00001238B40810941F20002C4F2020288581843885001B0704781B040F67821C2F247
:2062C000000100200880FFE740F67820C2F200000088FF2815D8FFE740F67820C2F20000A9
:2062E0000088820040F26461C2F2000100208850FFE740F67821C2F200010888401C088012
:20630000E2E740F23E60C2F20000008800285BD1FFE740F26461C2F20001009144F6437044
:20632000C0F6000040F2EC32885044F69330C0F6000040F2E032885044F6FF60C0F6000061
:2063400040F2E832885045F2FF10C0F60000086745F26140C0F60000C86645F27F30C0F656
:206360000000486645F2E300C0F60000C86045F24300C0F60000C86144F66310C0F60000BB
:2063800040F2F032885045F29F10C0F60000086644F6CF00C0F60000486044F61150C0F60F
:2063A000000040F2DC32885045F24F10C0F60000D422885040F22461C2F2000144F6DB50DA
:2063C000C0F60000086024E040F23E60C2F200000088012808D0FFE740F23E60C2F2000024
:2063E0000088022814D1FFE740F26461C2F2000145F24F10C0F60000D422885040F22461A3
:20640000C2F2000141F6A170C0F600000860FFE7FFE701B0704780B582B00190F9F780FFC6
:206420000198FFF724FA02B080BDB0B586B00A9C0B9D059404930392029101A900910870CC
:2064400040F25460C2F200000021417060220270039A428002AA52888280017381600B99FC
:20646000FCF77CFC0146009840F67822C2F20002118000780B99128800F06BFB06B0B0BD8C
:2064800080B541F2DC00C2F20000011D02460832FAF759FA40F6BC40C2F20000011D0246D4
:2064A0000832FAF750FA80BD80B584B041F2DC00C2F20000011D40F20122FAF7DAF900289F
:2064C0000CDCFFE740F6BC40C2F20000011D40F20122FAF7CEF9012858DBFFE70620FBF783
:2064E000A4FB00F097FDFBF75BFEFFE741F2DC00C2F20000011D40F20122FAF7BAF9012845
:206500001BDBFFE703A80290009041F2DC00C2F20000011D0246083240F20123FAF7D6F959
:20652000029801780020FBF7CCFC0620FBF77DFB00F070FDFBF734FED8E7FFE740F6BC4086
:20654000C2F20000011D40F20122FAF792F901281BDBFFE703A80190009040F6BC40C2F2E1
:206560000000011D0246083240F20123FAF7AEF9019801780120FBF7A4FC0620FBF755FB60
:2065800000F048FDFBF70CFED8E7FFE704B080BDB0B586B00A9C0B9D0594049303920291F3
:2065A00001A90091087040F25460C2F20000FF214170602101700399418002A949888180F1
:2065C0000021017381600B99FCF7C8FB0146009840F67822C2F20002118000780B9912883F
:2065E00000F0B7FA06B0B0BD80B586B005900491059804A909880191009040F6BC40C2F25F
:206600000000011D0246083240F20123FAF7D4F847F2F510C0F60000FFF729F90020039008
:20662000FFE70398049988420ED2FFE705980399415C47F2AD10C0F60000FFF718F9FFE73D
:206640000398401C0390ECE747F2AB10C0F60000FFF70DF906B080BD80B586B005900491AF
:20666000059804A909880191009041F2DC00C2F20000011D0246083240F20123FAF79CF8DF
:2066800047F2D510C0F60000FFF7F1F800200390FFE70398049988420ED2FFE705980399AD
:2066A000415C47F2AD10C0F60000FFF7E0F8FFE70398401C0390ECE747F2AB10C0F60000D6
:2066C000FFF7D5F806B080BD85B00A4604A9087003A8027002789207130F0F229A40D243E8
:2066E0000292097802789207120F91400191007880080090032841D800998A0001A08018BE
:206700008746C04600F006B800F011B800F01CB800F027B8029A40F20801C4F201010868AD
:2067200010400860019A08681043086027E0029A40F20C01C4F20101086810400860019A7E
:206740000868104308601AE0029A40F21001C4F20101086810400860019A0868104308608F
:206760000DE0029A40F21401C4F20101086810400860019A08681043086000E0FFE705B028
:20678000704710B586B000200590049041F20002C4F20202116801231B04194311600290F4
:2067A000FFE70298400B28B9FFE7FFE70298401C0290F6E7FFE70598401C059041F2000055
:2067C000C4F2020000680121490408400490FFE704990020019041B9FFE705984FF6FF71E8
:2067E000401A411E88410190FFE70198C0070028E1D1FFE741F20000C4F2020000688003AA
:20680000002802D4FFE7FFE7FEE742F20001C4F2020108680122104306239843086041F256
:206820000401C4F2020100910868086008680860086840F200431843086041F22C03C4F299
:20684000020318680F24A043186008684FF6FF73C7F6007318400860086819231B041843E8
:20686000086041F20001C4F202010868120610430860FFE741F20000C4F2020000688001C6
:20688000002801D4FFE7F5E741F20401C4F202010868039003980322904303900398022260
:2068A0001043039003980860FFE741F20400C4F2020000680C210840082801D0FFE7F4E77B
:2068C00006B010BD80B5FFF75CFF80BD81B000900099086880221043086001B0704780B5AE
:2068E00088B007900798069001218907884228D0FFE7069840F20041C4F20001884229D0AF
:20690000FFE7069841F20001C4F2000188422AD0FFE7069841F20041C4F2000188422BD0D0
